:020000040800F2
:1000000000500020751F0008B51A0008B71A000834
:10001000B91A0008BB1A0008BD1A00080000000049
:10002000000000000000000000000000BF1A0008EF
:10003000C11A000800000000C31A0008C51A000811
:10004000BD1F0008CD1A0008BD1F0008BD1F000815
:10005000BD1F0008BD1F0008BD1F0008BD1F000810
:10006000BD1F0008BD1F0008BD1F0008D51A0008ED
:10007000BD1F0008BD1F0008BD1F0008BD1F0008F0
:10008000BD1F0008BD1F0008BD1F0008BD1F0008E0
:10009000BD1F0008BD1F0008BD1F0008BD1F0008D0
:1000A000BD1F0008BD1F0008BD1F0008BD1F0008C0
:1000B000BD1F0008BD1F0008BD1F0008BD1F0008B0
:1000C000BD1F0008BD1F0008BD1F0008BD1F0008A0
:1000D000BD1F0008BD1F0008BD1F0008BD1F000890
:1000E000BD1F0008BD1F0008BD1F00080000000064
:1000F0000000000000000000000000000000000000
:0C01000000000000000000005FF808F1A3
:1001100081F0004102E000BF83F0004330B54FEAB8
:1001200041044FEA430594EA050F08BF90EA020F25
:100130001FBF54EA000C55EA020C7FEA645C7FEAB8
:10014000655C00F0E2804FEA5454D4EB5555B8BFDB
:100150006D420CDD2C4480EA020281EA030382EA4C
:10016000000083EA010180EA020281EA0303362DDE
:1001700088BF30BD11F0004F4FEA01314FF4801CB1
:100180004CEA113102D0404261EB410113F0004FC3
:100190004FEA03334CEA133302D0524263EB43037A
:1001A00094EA050F00F0A780A4F10104D5F1200E18
:1001B0000DDB02FA0EFC22FA05F2801841F1000173
:1001C00003FA0EF2801843FA05F359410EE0A5F147
:1001D00020050EF1200E012A03FA0EFC28BF4CF078
:1001E000020C43FA05F3C01851EBE37101F000452E
:1001F00007D54FF0000EDCF1000C7EEB00006EEB3B
:100200000101B1F5801F1BD3B1F5001F0CD34908C4
:100210005FEA30004FEA3C0C04F101044FEA44521B
:1002200012F5800F80F09A80BCF1004F08BF5FEAA2
:10023000500C50F1000041EB045141EA050130BD82
:100240005FEA4C0C404141EB0101013C28BFB1F594
:10025000801FE9D291F0000F04BF01460020B1FADF
:1002600081F308BF2033A3F10B03B3F120020CDAB2
:100270000C3208DD02F1140CC2F10C0201FA0CF090
:1002800021FA02F10CE002F11402D8BFC2F1200CF5
:1002900001FA02F120FA0CFCDCBF41EA0C019040AB
:1002A000E41AA2BF01EB0451294330BD6FEA0404F4
:1002B0001F3C1CDA0C340EDC04F11404C4F12002DF
:1002C00020FA04F001FA02F340EA030021FA04F3F1
:1002D00045EA030130BDC4F10C04C4F1200220FA48
:1002E00002F001FA04F340EA0300294630BD21FA86
:1002F00004F0294630BD94F0000F83F4801306BF4C
:1003000081F480110134013D4EE77FEA645C18BF3F
:100310007FEA655C29D094EA050F08BF90EA020FD6
:1003200005D054EA000C04BF1946104630BD91EACE
:10033000030F1EBF0021002030BD5FEA545C05D1D1
:100340004000494128BF41F0004130BD14F5800410
:100350003CBF01F5801130BD01F0004545F0FE4184
:1003600041F470014FF0000030BD7FEA645C1ABFB9
:10037000194610467FEA655C1CBF0B46024650EAF0
:10038000013406BF52EA033591EA030F41F400211C
:1003900030BD00BF90F0000F04BF0021704730B5A2
:1003A0004FF4806404F132044FF000054FF0000177
:1003B00050E700BF90F0000F04BF0021704730B538
:1003C0004FF4806404F1320410F0004548BF40420D
:1003D0004FF000013EE700BF42004FEAE2014FEA62
:1003E00031014FEA02701FBF12F07F4393F07F4F3D
:1003F00081F06051704732F07F4208BF704793F040
:100400007F4F04BF41F40021704730B54FF4607452
:1004100001F0004521F000411CE700BF50EA010255
:1004200008BF704730B54FF000050AE050EA0102FE
:1004300008BF704730B511F0004502D5404261EB6E
:1004400041014FF4806404F132045FEA915C3FF4AF
:10045000D8AE4FF003025FEADC0C18BF03325FEA4C
:10046000DC0C18BF033202EBDC02C2F1200300FAFD
:1004700003FC20FA02F001FA03FE40EA0E0021FA22
:1004800002F11444BDE600BF70B54FF0FF0C4CF410
:10049000E06C1CEA11541DBF1CEA135594EA0C0FC2
:1004A00095EA0C0F00F0DEF82C4481EA030621EAFD
:1004B0004C5123EA4C5350EA013518BF52EA033538
:1004C00041F4801143F4801338D0A0FB02CE4FF0EA
:1004D0000005E1FB02E506F00042E0FB03E54FF01A
:1004E0000006E1FB03569CF0000F18BF4EF0010E12
:1004F000A4F1FF04B6F5007F64F5407404D25FEA0E
:100500004E0E6D4146EB060642EAC62141EA5551C0
:100510004FEAC52040EA5E504FEACE2EB4F1FD0C02
:1005200088BFBCF5E06F1ED8BEF1004F08BF5FEA80
:10053000500E50F1000041EB045170BD06F0004632
:1005400046EA010140EA020081EA0301B4EB5C04DF
:10055000C2BFD4EB0C0541EA045170BD41F48011D7
:100560004FF0000E013C00F3AB8014F1360FDEBFFC
:10057000002001F0004170BDC4F10004203C35DAD8
:100580000C341BDC04F11404C4F1200500FA05F35B
:1005900020FA04F001FA05F240EA020001F00042FC
:1005A00021F0004110EBD37021FA04F642EB060172
:1005B0005EEA430E08BF20EAD37070BDC4F10C049C
:1005C000C4F1200500FA04F320FA05F001FA04F260
:1005D00040EA020001F0004110EBD37041F100014C
:1005E0005EEA430E08BF20EAD37070BDC4F1200557
:1005F00000FA05F24EEA020E20FA04F301FA05F2BF
:1006000043EA020321FA04F001F0004121FA04F266
:1006100020EA020000EBD3705EEA430E08BF20EA36
:10062000D37070BD94F0000F0FD101F00046400070
:1006300041EB010111F4801F08BF013CF7D041EAF2
:10064000060195F0000F18BF704703F000465200F6
:1006500043EB030313F4801F08BF013DF7D043EAC7
:100660000603704794EA0C0F0CEA135518BF95EA7D
:100670000C0F0CD050EA410618BF52EA4306D1D104
:1006800081EA030101F000414FF0000070BD50EA23
:10069000410606BF1046194652EA430619D094EAAD
:1006A0000C0F02D150EA013613D195EA0C0F05D197
:1006B00052EA03361CBF104619460AD181EA0301EB
:1006C00001F0004141F0FE4141F470014FF00000A3
:1006D00070BD41F0FE4141F4780170BD70B54FF03E
:1006E000FF0C4CF4E06C1CEA11541DBF1CEA1355BE
:1006F00094EA0C0F95EA0C0F00F0A7F8A4EB0504A0
:1007000081EA030E52EA03354FEA013100F0888096
:100710004FEA03334FF0805545EA131343EA12635F
:100720004FEA022245EA111545EA10654FEA002614
:100730000EF000419D4208BF964244F1FD0404F5CD
:10074000407402D25B084FEA3202B61A65EB030529
:100750005B084FEA32024FF480104FF4002CB6EBE6
:10076000020E75EB030E22BFB61A754640EA0C0066
:100770005B084FEA3202B6EB020E75EB030E22BFA6
:10078000B61A754640EA5C005B084FEA3202B6EBE7
:10079000020E75EB030E22BFB61A754640EA9C00A6
:1007A0005B084FEA3202B6EB020E75EB030E22BF76
:1007B000B61A754640EADC0055EA060E18D04FEA34
:1007C000051545EA16754FEA06164FEAC30343EAD4
:1007D00052734FEAC2025FEA1C1CC0D111F4801FA1
:1007E0000BD141EA00014FF000004FF0004CB6E79A
:1007F00011F4801F04BF01430020B4F1FD0C88BF39
:10080000BCF5E06F3FF6AFAEB5EB030C04BFB6EB43
:10081000020C5FEA500C50F1000041EB045170BD36
:100820000EF0004E4EEA113114EB5C04C2BFD4EB63
:100830000C0541EA045170BD41F480114FF0000EE7
:10084000013C90E645EA060E8DE60CEA135594EA63
:100850000C0F08BF95EA0C0F3FF43BAF94EA0C0F66
:100860000AD150EA01347FF434AF95EA0C0F7FF4DB
:1008700025AF104619462CE795EA0C0F06D152EA2F
:1008800003353FF4FDAE1046194622E750EA410613
:1008900018BF52EA43067FF4C5AE50EA41047FF424
:1008A0000DAF52EA43057FF4EBAE12E74FEA410287
:1008B000B2F1E04324BFB3F5001CDCF1FE5C0DD9BE
:1008C00001F0004C4FEAC0024CEA5070B2F1004F08
:1008D00040EB830008BF20F00100704711F0804F0B
:1008E00021D113F13872BCBF01F00040704741F4D0
:1008F00080114FEA5252C2F11802C2F1200C10FAD4
:100900000CF320FA02F018BF40F001004FEAC123B7
:100910004FEAD32303FA0CFC40EA0C0023FA02F35B
:100920004FEA4303CCE77FEA625307D150EA013331
:100930001EBF4FF0FE4040F44000704701F0004001
:1009400040F0FE4040F40000704700BF80F00040DF
:1009500002E000BF81F0004142001FBF5FEA410397
:1009600092EA030F7FEA226C7FEA236C6AD04FEA97
:100970001262D2EB1363C1BFD218414048404140DC
:10098000B8BF5B42192B88BF704710F0004F40F48E
:10099000000020F07F4018BF404211F0004F41F4AA
:1009A000000121F07F4118BF494292EA030F3FD076
:1009B000A2F1010241FA03FC10EB0C00C3F1200389
:1009C00001FA03F100F0004302D5494260EB400018
:1009D000B0F5000F13D3B0F1807F06D340084FEA83
:1009E000310102F10102FE2A51D2B1F1004F40EB78
:1009F000C25008BF20F0010040EA030070474900E0
:100A000040EB0000013A28BFB0F5000FEDD2B0FA7C
:100A100080FCACF1080CB2EB0C0200FA0CF0AABF9F
:100A200000EBC25052421843BCBFD040184370473D
:100A300092F0000F81F4000106BF80F40000013243
:100A4000013BB5E74FEA41037FEA226C18BF7FEA1A
:100A5000236C21D092EA030F04D092F0000F08BF5C
:100A60000846704790EA010F1CBF0020704712F043
:100A70007F4F04D1400028BF40F00040704712F182
:100A800000723CBF00F50000704700F0004343F0E7
:100A9000FE4040F4000070477FEA226216BF08461D
:100AA0007FEA23630146420206BF5FEA412390EAE0
:100AB000010F40F4800070474FF0000304E000BFD6
:100AC00010F0004348BF40425FEA000C08BF704787
:100AD00043F0964301464FF000001CE050EA01024B
:100AE00008BF70474FF000030AE000BF50EA010260
:100AF00008BF704711F0004302D5404261EB41014D
:100B00005FEA010C02BF84460146002043F0B64371
:100B100008BFA3F18053A3F50003BCFA8CF2083A96
:100B2000A3EBC25310DB01FA02FC634400FA02FC9F
:100B3000C2F12002BCF1004F20FA02F243EB0200A6
:100B400008BF20F00100704702F1200201FA02FC08
:100B5000C2F1200250EA4C0021FA02F243EB0200FB
:100B600008BF20EADC7070474FF0FF0C1CEAD0523F
:100B70001EBF1CEAD15392EA0C0F93EA0C0F6FD000
:100B80001A4480EA010C400218BF5FEA41211ED0DE
:100B90004FF0006343EA501043EA5111A0FB0131CA
:100BA0000CF00040B1F5000F3EBF490041EAD3719F
:100BB0005B0040EA010062F17F02FD2A1DD8B3F11B
:100BC000004F40EBC25008BF20F00100704790F08A
:100BD000000F0CF0004C08BF49024CEA502040EADC
:100BE00051207F3AC2BFD2F1FF0340EAC2507047A2
:100BF00040F400004FF00003013A5DDC12F1190FE0
:100C0000DCBF00F000407047C2F10002410021FA51
:100C100002F1C2F1200200FA02FC5FEA310040F169
:100C2000000053EA4C0308BF20EADC70704792F0E2
:100C3000000F00F0004C02BF400010F4000F013A1A
:100C4000F9D040EA0C0093F0000F01F0004C02BF15
:100C5000490011F4000F013BF9D041EA0C018FE784
:100C60000CEAD15392EA0C0F18BF93EA0C0F0AD08A
:100C700030F0004C18BF31F0004CD8D180EA0100B0
:100C800000F00040704790F0000F17BF90F0004F49
:100C9000084691F0000F91F0004F14D092EA0C0F2B
:100CA00001D142020FD193EA0C0F03D14B0218BFBE
:100CB000084608D180EA010000F0004040F0FE4004
:100CC00040F40000704740F0FE4040F440007047A0
:100CD0004FF0FF0C1CEAD0521EBF1CEAD15392EA1F
:100CE0000C0F93EA0C0F69D0A2EB030280EA010C0F
:100CF00049024FEA402037D04FF0805343EA1111A8
:100D000043EA10130CF000408B4238BF5B0042F105
:100D10007D024FF4000C8B4224BF5B1A40EA0C00AA
:100D2000B3EB510F24BFA3EB510340EA5C00B3EBDC
:100D3000910F24BFA3EB910340EA9C00B3EBD10FCA
:100D400024BFA3EBD10340EADC001B0118BF5FEA1C
:100D50001C1CE0D1FD2A3FF650AF8B4240EBC25045
:100D600008BF20F0010070470CF0004C4CEA502006
:100D70007F32C2BFD2F1FF0340EAC250704740F455
:100D800000004FF00003013A37E792F0000F00F047
:100D9000004C02BF400010F4000F013AF9D040EAC5
:100DA0000C0093F0000F01F0004C02BF490011F459
:100DB000000F013BF9D041EA0C0195E70CEAD15351
:100DC00092EA0C0F08D142027FF47DAF93EA0C0F38
:100DD0007FF470AF084676E793EA0C0F04D14B021C
:100DE0003FF44CAF08466EE730F0004C18BF31F0CE
:100DF000004CCAD130F000427FF45CAF31F00043C8
:100E00007FF43CAF5FE700BF4FF0FF3C06E000BF60
:100E10004FF0010C02E000BF4FF0010C4DF804CD83
:100E20004FEA40024FEA41037FEA226C18BF7FEA93
:100E3000236C11D001B052EA530C18BF90EA010F95
:100E400058BFB2EB030088BFC81738BF6FEAE17024
:100E500018BF40F0010070477FEA226C02D15FEAC0
:100E6000402C05D17FEA236CE4D15FEA412CE1D02C
:100E70005DF8040B704700BF844608466146FFE7F3
:100E80000FB5FFF7C9FF002848BF10F1000F0FBDD5
:100E90004DF808EDFFF7F4FF0CBF012000205DF8CE
:100EA00008FB00BF4DF808EDFFF7EAFF34BF012053
:100EB00000205DF808FB00BF4DF808EDFFF7E0FFEC
:100EC00094BF012000205DF808FB00BF4DF808ED3D
:100ED000FFF7D2FF94BF012000205DF808FB00BFA0
:100EE0004DF808EDFFF7C8FF34BF012000205DF882
:100EF00008FB00BF844641EA000313F0030349D115
:100F0000403A23D30B6803604B6843608B6883606F
:100F1000CB68C3600B6903614B6943618B69836173
:100F2000CB69C3610B6A03624B6A43628B6A83625B
:100F3000CB6AC3620B6B03634B6B43638B6B836343
:100F4000CB6BC36340304031403ADBD230320BD3FD
:100F50000B6803604B6843608B688360CB68C36039
:100F600010301031103AF3D20C3205D351F8043B53
:100F700040F8043B043AF9D2043208D0D2071CBF2F
:100F800011F8013B00F8013B01D30B880380604658
:100F9000704700BF082A13D38B07B1D010F00303AA
:100FA000AED0C3F10403D21ADB071CBF11F8013B1A
:100FB00000F8013BA4D331F8023B20F8023B9FE745
:100FC000043AD9D3013A11F8013B00F8013BF9D2B8
:100FD0000B7803704B7843708B7883706046704752
:100FE0004FF0FF3C06E000BF4FF0010C02E000BFF5
:100FF0004FF0010C4DF804CD4FEA410C7FEA6C5CD8
:101000004FEA430C18BF7FEA6C5C1BD001B050EA7A
:10101000410C0CBF52EA430C91EA030F02BF90EA65
:10102000020F0020704710F1000F91EA030F58BF24
:10103000994208BF90422CBFD8176FEAE37040F086
:10104000010070474FEA410C7FEA6C5C02D150EA24
:10105000013C07D14FEA430C7FEA6C5CD6D152EADF
:10106000033CD3D05DF8040B704700BF84461046A4
:1010700062468C461946634600E000BF01B5FFF7A3
:10108000B7FF002848BF10F1000F01BD4DF808ED73
:10109000FFF7F4FF0CBF012000205DF808FB00BF44
:1010A0004DF808EDFFF7EAFF34BF012000205DF89E
:1010B00008FB00BF4DF808EDFFF7E0FF94BF0120EB
:1010C00000205DF808FB00BF4DF808EDFFF7CEFFEC
:1010D00094BF012000205DF808FB00BF4DF808ED2B
:1010E000FFF7C4FF34BF012000205DF808FB00BFFC
:1010F0004FEA410C7FEA6C5C02D150EA013C0AD114
:101100004FEA430C7FEA6C5C02D152EA033C02D105
:101110004FF0000070474FF0010070474FEA410266
:1011200012F5001215D211D56FF47873B3EB625239
:1011300012D94FEAC12343F0004343EA505311F060
:10114000004F23FA02F018BF404270474FF00000F2
:10115000704750EA013005D111F0004008BF6FF030
:10116000004070474FF00000704700BF0348044B39
:10117000834202D0034B03B118477047C4060020D6
:10118000C4060020000000000548064B1B1AD90FBA
:1011900001EBA301491002D0034B03B1184770477C
:1011A000C4060020C40600200000000010B5064C54
:1011B000237843B9FFF7DAFF044B13B10448AFF3C8
:1011C00000800123237010BDC40600200000000031
:1011D000ECAB000808B5054B1BB105490548AFF35A
:1011E0000080BDE80840FFF7CFBF00BF000000004F
:1011F000C8060020ECAB000838B504460D460122B5
:101200004FF4E051244801F025FD601E03280BD85F
:10121000DFE800F002122232012D06D001224FF445
:1012200080611D4801F016FD38BD00224FF4806139
:10123000194801F00FFDF7E7012D06D001224FF408
:101240000061154801F006FDEEE700224FF4006151
:10125000114801F0FFFCE7E7012D06D001224FF411
:1012600080510D4801F0F6FCDEE700224FF480517A
:10127000094801F0EFFCD7E7012D06D001224FF419
:10128000E051054801F0E6FCCEE700224FF4E051C2
:10129000014801F0DFFCC7E70008014010B50C462B
:1012A000012802D0022808D010BD01290ED000224A
:1012B0004FF480710C4801F0CDFC012C0DD00022C0
:1012C0004FF40071084801F0C5FCEDE701224FF42E
:1012D0008071054801F0BEFCEFE701224FF4007178
:1012E000014801F0B7FCDFE7000801400000000002
:1012F0002DE9F8439A4CDFF86C920E2221464846BD
:1013000000F0DEFFA088FFF755F802460B460020EC
:101310009549FFF7E3F90022944BFEF7FDFE0246E4
:101320000B4600209249FFF7D9F9FFF7BFFA0546AF
:101330006088FFF73FF802460B4600208A49FFF716
:10134000CDF90022894BFEF7E7FE02460B4600204E
:101350008749FFF7C3F9FFF7A9FA8046E088FFF74E
:1013600029F802460B4600207F49FFF7B7F9002213
:101370007E4BFEF7D1FE02460B4600207C49FFF76C
:10138000ADF9FFF793FA07462089FFF713F80246F5
:101390000B4600207449FFF7A1F90022734BFEF7BA
:1013A000BBFE02460B4600207149FFF797F9FFF795
:1013B0007DFA06466F492846FFF78AFCFFF70CF8CE
:1013C00009F0FEF960A3D3E90023FFF787F960A3D2
:1013D000D3E90023FEF7A2FE02460B460020634934
:1013E000FFF77CF95CA3D3E90023FEF795FEFFF736
:1013F0005DFA0546FEF7F0FF02460B465E4803F035
:101400007DF85C494046FFF763FCFEF7E5FF09F015
:10141000D7F94DA3D3E90023FFF760F94CA3D3E933
:101420000023FEF77BFE02460B4600204F49FFF7E4
:1014300055F949A3D3E90023FEF76EFEFFF736FA0C
:101440008046FEF7C9FF02460B464C4803F056F8AB
:1014500048493846FFF73CFCFEF7BEFF09F0B0F9FB
:1014600039A3D3E90023FFF739F939A3D3E90023DE
:10147000FEF754FE02460B4600203C49FFF72EF9CA
:1014800035A3D3E90023FEF747FEFFF70FFA044622
:10149000FEF7A2FF02460B46394803F02FF8354904
:1014A0003046FFF715FCFEF797FF09F089F926A3F0
:1014B000D3E90023FFF712F925A3D3E90023FEF7B0
:1014C0002DFE02460B4600202849FFF707F922A30C
:1014D000D3E90023FEF720FEFFF7E8F90646FEF702
:1014E0007BFF02460B46274803F008F8484601F008
:1014F0002FF800212846FFF7CBFC20B922494046AF
:10150000FFF7E4FC98B900210120FFF7C7FE002196
:101510002046FFF7BDFC20B91B493046FFF7D6FC3B
:1015200050B900210220FFF7B9FEBDE8F883012180
:101530000846FFF7B3FEEAE701210220FFF7AEFEFF
:10154000F3E700BFAFF300800000000000DCAE4016
:10155000000000E0E1796B3F00000060661271401E
:10156000E0060020480700200000B0400000F03FE7
:10157000000026400000204108AC00081CAC000818
:1015800030AC000844AC00080000344238B5144CBC
:10159000144D12222146284600F092FE2088FEF7C4
:1015A00009FF0022104BFEF76FFF00220F4BFEF7E2
:1015B0006BFFFFF77BF9FEF70FFF02460B460C4867
:1015C00002F09CFF208AFFF777FAFEF705FF02463C
:1015D0000B46084802F092FF284600F0B9FF38BDDC
:1015E000F0060020480700200000303F000038408F
:1015F00058AC000874AC000838B50C4C00212046EB
:1016000002F054FC236840F2F3155D630421204688
:1016100002F04CFC23689D630021204602F0D8FBB9
:101620000421204602F0D4FB38BD00BF180800207A
:1016300000B585B000230193029303933748384ADD
:1016400002604FF480728260037303754FF460226E
:10165000C26143600723036100F0F6FE002845D114
:1016600000230193012302930523039301A92B482F
:1016700000F042FD00283CD1012301930223029394
:1016800001A9264800F038FD002835D10323029334
:1016900001A9224800F030FD002830D10223019337
:1016A000042302930DEB03011C4800F025FD48BB09
:1016B000032301930523029301A9184800F01CFDA0
:1016C00018BB042301930623029301A9134800F0D9
:1016D00013FDE8B9082301930723029301A90F48DA
:1016E00000F00AFDB8B905B05DF804FB00F030F970
:1016F000B6E700F02DF9BFE700F02AF9C6E700F0E1
:1017000027F9CBE700F024F9D2E700F021F9D8E778
:1017100000F01EF9DEE700F01BF9E4E748070020BF
:101720000024014030B589B000230493059306934B
:1017300007930268264B9A4201D009B030BD044697
:1017400003F56C439A6942F400729A619A6902F453
:1017500000720192019A9A6942F004029A619A69B0
:1017600002F004020292029A9A6942F008029A6117
:101770009B6903F008030393039B1F230493032532
:10178000059504A9134801F057F90495059504A996
:10179000114801F051F91148114B036000234360D7
:1017A00083608023C3604FF4807303614FF48063D0
:1017B0004361202383614FF48053C36101F006F835
:1017C00018B9064B23625C62B7E700F0C1F8F8E78E
:1017D0000024014000080140000C014004070020E3
:1017E0000800024000B583B00A4B5A6942F001027A
:1017F0005A615B6903F001030193019B00221146CA
:101800000B2000F09BFF0B2000F0A8FF03B05DF859
:1018100004FB00BF0010024030B589B000240494DE
:101820000594069407941B4B9A6942F020029A6132
:101830009A6902F020020192019A9A6942F0040228
:101840009A619A6902F004020292029A9A6942F03D
:1018500008029A619B6903F008030393039B0E4DF2
:1018600022464FF44071284601F0F4F901224FF46A
:10187000E051284601F0EEF94FF4F85304930123A8
:10188000059306940223079304A9284601F0D4F88F
:1018900009B030BD001002400008014008B50B48F7
:1018A0000B4B03600B4B436000238360C3604FF41A
:1018B0008042026143618361C361036201F0D0F938
:1018C00000B908BD00F044F8FBE700BF780700202E
:1018D00000540040A086010010B586B0002302939A
:1018E0000393049305930268154B9A4201D006B006
:1018F00010BD144CA36943F00803A361A36903F06E
:1019000008030093009B4FF4407302931223039348
:101910000323059302A90C4801F08EF80B4A536883
:1019200043F0E06343F002035360E36943F40013C0
:10193000E361E36903F400130193019BD7E700BF60
:101940000054004000100240000C01400000014023
:1019500072B6FEE700B595B0282200210DEB02001B
:1019600002F07CFE002305930693079308930993E6
:10197000019302930393049301220A924FF480335C
:101980000B930E920222119212934FF4E0131393D1
:101990000AA801F06BFAC8B90F230593022106913A
:1019A000002307934FF480620892099305A801F081
:1019B0008FFC68B9022301934FF40043039301A8FD
:1019C00001F062FD30B915B05DF804FBFFF7C0FF10
:1019D000FFF7BEFFFFF7BCFF08B500F017FBFFF7EE
:1019E000B9FFFFF719FFFFF7FDFEFFF721FE00F03B
:1019F000D9F800F0F1F900F00DF900F04DFAFFF719
:101A00004DFF114801F032FF0021104802F090FA1A
:101A10000F4800F0CDFDC82000F01CFB0D4802F07F
:101A2000CDFD0D4802F0CAFDFFF7E6FD4FF47A70D8
:101A300000F010FBFFF7AAFDFFF75AFC0121084652
:101A4000FFF7DAFBF2E700BF18080020D0070020FC
:101A50004807002094AC0008B0AC000800B583B083
:101A6000124B9A6942F001029A619A6902F00102EE
:101A70000092009ADA6942F08052DA61DB6903F081
:101A800080530193019B00221146012000F056FE75
:101A9000012000F063FE064A536823F0E06343F040
:101AA0000073536003B05DF804FB00BF00100240F8
:101AB00000000140FEE7FEE7FEE7FEE7FEE77047B5
:101AC0007047704708B500F0B3FA08BD08B501F0DB
:101AD000A7F908BD08B5024800F00CFF08BD00BF1B
:101AE000040700200120704708B502F05BFE1623B2
:101AF00003604FF0FF3008BD08B54FF0FF31FFF72E
:101B0000F3FFFEE770B50C461646002506E0AFF37E
:101B10000080214601F8010B01350C46B542F6DB89
:101B2000304670BD70B50C461646002504E014F82A
:101B3000010B00F00FFA0135B542F8DB304670BDFD
:101B40004FF0FF3070474FF400534B600020704758
:101B5000012070470020704710B503460C4A0D491C
:101B60000D48006840B10C4800680344521A934283
:101B700006D8094A136010BD0748084C0460F2E714
:101B800002F010FE0C2303604FF0FF30F3E700BFBC
:101B90000050002000040000CC070020080C0020AA
:101BA0007047000000B587B00023029303930493AD
:101BB0000593009301931548154A026043608360C2
:101BC0004FF6FF72C26003614361836101F0B8FEAA
:101BD00090B94FF48053029302A90C4802F06AF8BE
:101BE00068B90023009301936946084802F044FA5B
:101BF00040B907B05DF804FBFFF7AAFEE9E7FFF77D
:101C0000A7FEEEE7FFF7A4FEF3E700BF60080020A1
:101C1000002C014000B58BB0002306930793089376
:101C200009930493059300930193029303931F4830
:101C30001F4A02604722426083604FF6FF72C26013
:101C40000361836101F07CFE08BB4FF4805306936F
:101C500006A9164802F02EF8E0B9144801F0C8FEB3
:101C6000D8B900230493059304A9104802F004FA9C
:101C7000B0B90022009201230193029203926946B7
:101C80000A4801F0A9FF70B90BB05DF804FBFFF73B
:101C90005FFEDAE7FFF75CFEDFE7FFF759FEE0E7FC
:101CA000FFF756FEE5E7FFF753FEEDE7D00700200C
:101CB0000004004000B589B0002304930593069307
:101CC000079303681E4A934208D0B3F1804F10D0A7
:101CD0001C4A934219D009B05DF804FB1A4B9A696B
:101CE00042F400629A619B6903F400630093009BD5
:101CF000F1E703F50433DA6942F00102DA61DB69E6
:101D000003F001030193019BE5E70F4BDA6942F011
:101D10000202DA61DA6902F002020292029A9A6918
:101D200042F004029A619B6903F004030393039B4E
:101D30004023049304A9054800F07EFECBE700BFD2
:101D4000002C014000040040001002400008014047
:101D500010B586B0002302930393049305930368A0
:101D6000B3F1804F01D006B010BD03F504339A697A
:101D700042F004029A619A6902F004020092009A09
:101D80009A6942F008029A619B6903F00803019383
:101D9000019B4FF40043029302240394059402A98B
:101DA0000A4800F049FE08230293039405940DEBC2
:101DB0000301074800F040FE064A536823F44073CD
:101DC00043F0E06343F480735360CCE700080140C4
:101DD000000C01400000014000B58FB000230A93C1
:101DE0000B930C930D930893099301930293039320
:101DF000049305930693079326484FF080420260B0
:101E00004722426083604FF4FA72C26003618361CB
:101E100001F096FD60BB4FF480530A930AA91D4858
:101E200001F048FF38BB1B4801F0B6FD30BB002372
:101E30000893099308A9174802F01EF908BB60230C
:101E400001933223029300220392059201A91148C3
:101E500001F028FEC0B904220DEB02010D4801F08B
:101E600021FEA0B90B48FFF773FF0FB05DF804FB2C
:101E7000FFF76EFDCFE7FFF76BFDD4E7FFF768FDD7
:101E8000D5E7FFF765FDDAE7FFF762FDE3E7FFF768
:101E90005FFDE7E71808002008B50A480A4B036011
:101EA0004FF4E133436000238360C36003610C227D
:101EB00042618361C36102F0A1F900B908BDFFF777
:101EC00047FDFBE7A80800200038014010B586B0A8
:101ED0000023029303930493059302681A4B9A42DA
:101EE00001D006B010BD03F558439A6942F4804210
:101EF0009A619A6902F480420092009A9A6942F0CB
:101F000008029A619B6903F008030193019B402337
:101F1000029302230393032305930C4C02A920464A
:101F200000F08AFD8023029300230393049302A907
:101F3000204600F081FD064A536843F0E06343F019
:101F400004035360CDE700BF00380140000C01409E
:101F50000000014000B583B001904FF6FF730122ED
:101F600001A9034802F07AF9019803B05DF804FB77
:101F7000A8080020FFF714FE0B480C490C4A002368
:101F800002E0D458C4500433C4188C42F9D3094A2F
:101F9000094C002301E013600432A242FBD302F09B
:101FA00007FCFFF719FD704700000020C406002061
:101FB00008B10008C4060020080C0020FEE700005D
:101FC00010B504460E4B1A784FF47A73B3FBF2F354
:101FD0000C4A1068B0FBF3F000F0CEFB68B90F2C90
:101FE00001D901200AE0002221464FF0FF3000F025
:101FF000A5FB054B1C60002000E0012010BD00BFC8
:1020000004000020000000200800002008B5074A56
:10201000136843F010031360032000F07DFB0F20D2
:10202000FFF7CEFFFFF71AFD002008BD0020024099
:10203000034A1168034B1B780B441360704700BFC1
:10204000F008002004000020014B1868704700BF12
:10205000F008002038B50446FFF7F6FF0546B4F156
:10206000FF3F02D0044B1B781C44FFF7EDFF401BE1
:10207000A042FAD338BD00BF04000020704708B565
:10208000436A9A6A12F0500F1ED19A6A42F40072A3
:102090009A621A68926802F46022B2F5602F03D047
:1020A0001846FFF7EBFF08BD1A7B002AF8D19A6AA1
:1020B00022F480729A629A6A12F4805FF0D19A6A6E
:1020C00042F001029A62EBE71B6A1B6B9847EAE752
:1020D000704708B5406AFFF7FBFF08BD704708B5B9
:1020E000406A836A43F040038362C36A43F0040397
:1020F000C362FFF7F3FF08BD30B482B00022019243
:1021000090F82420012A00F08F800346012280F8F5
:1021100024204A68062A2DD80468606B02EB8202EC
:10212000053A4FF01F0C0CFA02FC20EA0C000D6877
:1021300005FA02F2024362630A68092A38D91C6868
:10214000E06802EB42021E3A4FF0070C0CFA02FC68
:1021500020EA0C008D6805FA02F20243E2600A6888
:10216000103A012A34D90020002283F8242002B03A
:1021700030BC70470C2A0DD80568286B02EB820230
:10218000233A1F24944020EA04000C689440204322
:102190002863D1E70568E86A02EB8202413A1F240E
:1021A000944020EA04000C6894402043E862C3E7AE
:1021B0001C68206902EB42024FF0070C0CFA02FC8B
:1021C00020EA0C008D6805FA02F202432261C6E79C
:1021D0001A681648824205D09A6A42F020029A6232
:1021E0000120C1E7906810F4000F1BD1906840F403
:1021F000000090600A68102A01D00020B4E70C4A61
:1022000012680C49A1FB0212920C02EB82025200EE
:10221000019202E0019A013A0192019A002AF9D151
:102220000020A1E700209FE70220A0E70024014052
:102230000000002083DE1B4330B583B000230193F0
:1022400003689A6812F0010F33D104469A6842F08D
:1022500001029A60184B1B68184AA2FB03239B0CCF
:10226000019302E0019B013B0193019B002BF9D1FB
:10227000FFF7EAFE054623689B6813F0010F16D1AD
:10228000FFF7E2FE431B022BF5D923689B6813F08E
:10229000010FF0D1A36A43F01003A362E36A43F095
:1022A0000103E362002384F82430012002E00020CF
:1022B00000E0002003B030BD0000002083DE1B439F
:1022C000F8B504460D46164601684448814259D087
:1022D000434B994256D094F82430012B7CD00123F3
:1022E00084F824302046FFF7A7FF074600286ED168
:1022F000A16A21F4706121F0010141F48071A162B1
:102300002268374B9A4244D0A36A23F48013A36215
:10231000536813F4806F05D0A36A23F4405343F449
:102320008053A362A36A13F4805F48D0E36A23F06A
:102330000603E362002384F82430236A294A9A6260
:10234000236A294ADA62236A284A1A6323686FF0EB
:1023500002021A602268936843F4807393602168D4
:1023600033462A464C31206A00F066FA23689A68A0
:1023700002F46022B2F5602F24D09A6842F48012F1
:102380009A6027E0154B5B6813F4702FA3D00127E8
:1023900020E0A3F580635B6813F4702FB4D0A36AC8
:1023A00043F48013A3620D4B5B6813F4806FB9D0C4
:1023B000A36A23F4405343F48053A362B2E700239B
:1023C000E362B7E79A6842F4A0029A6002E0002351
:1023D00084F824303846F8BD0227FBE7002401408A
:1023E000002801407F200008D3200008DF200008DB
:1023F00038B503689A6812F0010F01D1002038BD8A
:1024000004469A6822F001029A60FFF71DFE054615
:1024100023689B6813F0010F13D0FFF715FE431BD1
:10242000022BF5D923689B6813F0010FF0D0A36A43
:1024300043F01003A362E36A43F00103E362012067
:10244000DDE70020DBE7000000287BD070B5044604
:10245000836A002B4DD02046FFF7CAFFA36A13F012
:10246000100369D1002867D1A26A22F4885222F0B1
:10247000020242F00202A2626268E1690A43217B21
:1024800042EA4102A568B5F5807F02D0012D36D021
:102490001D46267D012E35D02668716821F46941DC
:1024A000294371602568AE68274931401143A9600E
:1024B000A168B1F5807F01D0012902D12369013BD8
:1024C0001B052568E96A21F470010B43EB62236860
:1024D00099681E4B0B409A4225D0A36A23F0120341
:1024E00043F01003A362E36A43F00103E3620120B7
:1024F00027E0C36280F82430FFF714F9ABE74FF40C
:102500008075C6E731B9A169013945EA413141F425
:102510000065C1E7A16A41F02001A162E16A41F0D2
:102520000101E162B8E70023E362A36A23F0030339
:1025300043F00103A36204E0A36A43F01003A36223
:10254000012070BD01207047FDF7E1FFFE0E1FFF67
:1025500090F82430012B28D010B50446012380F8D0
:102560002430FFF745FF50B92268936823F4807345
:102570009360226A92F82130DBB2022B03D0002351
:1025800084F8243010BD104600F091F940B9A36AD8
:1025900023F4885323F0010343F00103A362EEE721
:1025A000A36A43F04003A362E9E7022070470000FA
:1025B00070B582B00023019390F82430012B72D0C3
:1025C0000446012380F82430FFF712FF2046FFF76E
:1025D00033FE054628B1002384F82430284602B093
:1025E00070BDA36A23F4885323F0020343F002036F
:1025F000A3622E4B1E68022000F0D2FFB6FBF0F65D
:102600007600019602E0019B013B0193019B002BA8
:10261000F9D12268936843F008039360FFF714FD33
:10262000064623689A6812F0080F14D0FFF70CFDD5
:10263000801B0A28F5D923689B6813F0080FF0D097
:10264000A36A23F0120343F01003A362002384F86B
:1026500024300125C2E79A6842F004029A60FFF72D
:10266000F3FC064623689B6813F0040F14D0FFF7B1
:10267000EBFC801B0A28F5D923689B6813F0040F34
:10268000F0D0A36A23F0120343F01003A3620023E7
:1026900084F824300125A1E7A36A23F0030343F063
:1026A0000103A36297E7022598E700BF000000201E
:1026B000002808DB0901C9B200F1604000F5614063
:1026C00080F80013704700F00F000901C9B2014BF8
:1026D0001954704714ED00E000B500F00700C0F198
:1026E000070CBCF1040F28BF4FF0040C031D062B90
:1026F0000FD9C31E4FF0FF3E0EFA0CF021EA000185
:1027000099400EFA03FE22EA0E0241EA02005DF849
:1027100004FB0023EEE70000074AD36823F4E063DC
:102720001B041B0C000200F4E060034343F0BF6392
:1027300043F40033D360704700ED00E010B5044669
:10274000054BD868C0F30220FFF7C6FF01462046BC
:10275000FFF7AEFF10BD00BF00ED00E0002807DB73
:1027600000F01F02400901239340024A42F8203042
:10277000704700BF00E100E00138B0F1807F0BD26C
:102780004FF0E0235861054AF02182F82310002021
:10279000986107221A6170470120704700ED00E040
:1027A00030B40124056CAC40C56B6C600468636098
:1027B0004368102B05D0036899600368DA6030BC69
:1027C000704703689A600368D960F8E760B310B493
:1027D00002460168154B0B441548A0FB03031B0977
:1027E0009B001364134BD363022382F821300868E3
:1027F00020F47F5020F03000536894682343D4685D
:102800002343146923435469234394692343D469BC
:10281000234303430B6000209063012382F821309F
:1028200082F8200010BC704701207047F8FFFDBF00
:10283000CDCCCCCC0000024038B5044690F8200046
:10284000012832D0012084F8200094F82100C0B281
:10285000012804D0002384F82030022038BD022053
:1028600084F821000020A0632568286820F001007A
:1028700028602046FFF794FFE36A5BB12268136883
:1028800043F00E0313602268136843F001031360E2
:102890000020E3E72268136823F004031360226832
:1028A000136843F00A031360EDE70220D6E70346FE
:1028B00090F82120D2B2022A06D00422826300229C
:1028C00080F820200120704701680A6822F00E027B
:1028D0000A6001680A6822F001020A60026CC06B9B
:1028E000012101FA02F2426083F82110002083F8EE
:1028F0002000704738B5C36B1A6804682568016CFE
:1029000004238B40134235D015F0040F32D02368D6
:1029100013F0200F03D1236823F00403236003681E
:10292000434A934214D01432934218D01432934243
:1029300017D01432934217D01432934217D0143266
:10294000934202D04FF0806203E04FF4800200E037
:102950000422384B5A60C36A03B1984738BD4022FD
:10296000F7E74FF48062F4E74FF48042F1E74FF469
:102970008022EEE702238B4013423CD015F0020F79
:1029800039D0236813F0200F06D1236823F00A03FF
:102990002360012380F821300368254A934214D034
:1029A000143293421CD0143293421BD014329342FF
:1029B0001BD0143293421BD01432934202D04FF0FA
:1029C000007203E04FF4001200E00222194B5A603B
:1029D000002380F82030836A002BBFD09847BDE7E2
:1029E0002022F3E74FF40072F0E74FF40052EDE7D6
:1029F0004FF40032EAE708238B401342AED015F0C3
:102A0000080FABD0236823F00E032360026CC16B68
:102A1000012303FA02F24A60836380F82130002325
:102A200080F82030036B002B98D0984796E700BFC2
:102A3000080002400000024070B582B00024A446A5
:102A4000A2E07E4DAB4210D007D97D4DAB420CD0F9
:102A500005F58035AB4208D013E0A5F58015AB42F3
:102A600003D005F57025AB4207D18B68002B55D0FC
:102A7000012B4ED04261082403E0A5F58015AB423E
:102A8000F3D0BEF1FF0F4BD806464FEA8C023368F5
:102A90000F25954023EA050304FA02F2134333603D
:102AA0004B6813F0805F6DD0664B9A6942F001026B
:102AB0009A619B6903F001030193019B4FEA9C0219
:102AC000951C614B53F825600CF00305AD000F23F6
:102AD000AB4026EA03065D4B984228D003F580639D
:102AE000984200F08D8003F58063984200F08A8060
:102AF00003F58063984218D0042319E0CC68C0E73E
:102B0000CC680434BDE7CC680834BAE7CC680C3430
:102B1000B7E702610824B4E70024B2E70424B0E771
:102B2000061DACF108029200B1E7032300E0002388
:102B3000AB4033430232444D45F822304B6813F426
:102B4000801F61D0424A936843EA0E0393604B684A
:102B500013F4001F5ED03E4AD36843EA0E03D360ED
:102B60004B6813F4003F5BD0394A536843EA0E03C5
:102B700053604B6813F4803F58D0354A136843EADA
:102B80000E0313600CF1010C0B6833FA0CF253D0F6
:102B9000012202FA0CF203EA020E32EA0303F1D137
:102BA0004B68122B3FF64DAF122B3FF66AAF01A5D3
:102BB00055F823F06B2A0008FD2A0008072B0008AF
:102BC000192B0008832A0008832A0008832A00089A
:102BD000832A0008832A0008832A0008832A000821
:102BE000832A0008832A0008832A0008832A000811
:102BF000832A0008832A0008012B00080D2B0008F7
:102C0000012395E7022393E7114A936823EA0E0311
:102C100093609CE70E4AD36823EA0E03D3609FE7D4
:102C20000B4A536823EA0E035360A2E7084A13686D
:102C300023EA0E031360A5E702B070BD0000221066
:102C40000000311000100240000001400008014067
:102C5000000401400AB10161704709040161704735
:102C6000002800F0CC8070B5044690F83D30002B71
:102C700077D0242384F83D302268136823F00103C1
:102C800013602268136843F40043136022681368DA
:102C900023F40043136000F0D7FB62685A4B9A425A
:102CA00064D85A4B98428CBF00230123002B40F07C
:102CB000A8805749A1FB00318B0C25686A6822F077
:102CC0003F0242EA91426A6021680A6A22F03F02AA
:102CD00066684D4DAE424FD8013313430B622168F5
:102CE000CA6922F44F4222F0FF026568464B9D42BA
:102CF0004CD8431E6D00B3FBF5F3013340F6FC7076
:102D0000034278D0C3F30B031A43CA6121680B68EE
:102D100023F0C003E269206A024313430B60216879
:102D20008B6823F4034323F0FF032269E068024326
:102D300013438B602168CB6823F0FF036269A069AD
:102D400002431343CB602268136843F0010313600E
:102D500000202064202384F83D30206384F83E0066
:102D600070BD80F83C30FEF7B7FD82E7294B9842F2
:102D70008CBF0023012399E74FF4967505FB03F3FD
:102D8000254DA5FB03539B090133A6E7A668BEB9F1
:102D9000431E05EB450CB3FBFCF30133C3F30B03FC
:102DA000B3FA83F35B0943BBC6B9431E05EB450584
:102DB000B3FBF5F30133C3F30B0343F40043A3E781
:102DC000431E05EB850C0CEB8C0CB3FBFCF30133C1
:102DD000C3F30B03B3FA83F35B09E4E7431E05EB8C
:102DE000850505EB8505B3FBF5F30133C3F30B0351
:102DF00043F4404388E7042386E7012384E7012066
:102E000070470120ACE700BFA08601007F841E0050
:102E100083DE1B43FF083D00D34D62107047000066
:102E200008B5064B5B6913F4803F00D108BDFFF77E
:102E3000F5FF024B4FF480325A61F7E7000401407E
:102E400082B0084B1B68084AA2FB03235B0A00FB05
:102E500003F3019300BF019B5A1E0192002BF9D18D
:102E600002B0704700000020D34D6210002800F02F
:102E7000F18170B582B00446036813F0010F2CD0C5
:102E8000994B5B6803F00C03042B1DD0964B5B68D9
:102E900003F00C03082B12D06368B3F5803F41D0D8
:102EA000002B55D103F1804303F504331A6822F453
:102EB00080321A601A6822F480221A6037E08A4B46
:102EC0005B6813F4803FE7D0874B1B6813F4003F27
:102ED00003D06368002B00F0BF81236813F0020F5A
:102EE00075D0814B5B6813F00C0F5FD07E4B5B6835
:102EF00003F00C03082B54D02369002B00F08A80C8
:102F00007A4B01221A60FFF79FF80546764B1B6843
:102F100013F0020F75D1FFF797F8401B0228F5D97F
:102F200003209EE1704A136843F4803313606368A2
:102F300043B3FFF789F805466B4B1B6813F4003F5A
:102F4000CBD1FFF781F8401B6428F5D9032088E135
:102F5000B3F5A02F09D0644B1A6822F480321A60AE
:102F60001A6822F480221A60E1E703F18043A3F596
:102F70003C331A6842F480221A601A6842F48032A4
:102F80001A60D4E7FFF760F80546574B1B6813F447
:102F9000003FA2D0FFF758F8401B6428F5D9032062
:102FA0005FE1514B5B6813F4803FA5D14E4B1B682A
:102FB00013F0020F03D02369012B40F04F814A4ADE
:102FC000136823F0F803616943EAC10313602368BF
:102FD00013F0080F33D0A369002B5CD0434B0122C0
:102FE000C3F88024FFF730F805463F4B5B6A13F0C7
:102FF000020F21D1FFF728F8401B0228F5D9032042
:103000002FE1394A136823F0F803616943EAC103E9
:103010001360DCE7354B00221A60FFF715F8054610
:10302000314B1B6813F0020FD1D0FFF70DF8401B96
:103030000228F5D9032014E10120FFF701FF2368DE
:1030400013F0040F00F09680274BDB6913F0805FCC
:1030500034D1254BDA6942F08052DA61DB6903F042
:1030600080530193019B0125214B1B6813F4807F42
:1030700026D0E368012B3DD0002B53D103F18043D0
:1030800003F504331A6A22F001021A621A6A22F066
:1030900004021A6233E0154B0022C3F88024FEF7C5
:1030A000D3FF0546104B5B6A13F0020FC7D0FEF743
:1030B000CBFF401B0228F5D90320D2E00025D3E73F
:1030C0000B4A136843F480731360FEF7BDFF064696
:1030D000074B1B6813F4807FCBD1FEF7B5FF801B35
:1030E0006428F5D90320BCE00010024000004242F1
:1030F000007000405F4A136A43F001031362E36803
:1031000033B3FEF7A1FF06465A4B1B6A13F0020FBA
:103110002FD1FEF799FF801B41F288339842F3D9F3
:1031200003209EE0052B09D0524B1A6A22F00102BF
:103130001A621A6A22F004021A62E0E74D4B1A6A18
:1031400042F004021A621A6A42F001021A62D6E7D9
:10315000FEF77AFF0646474B1B6A13F0020F08D0B2
:10316000FEF772FF801B41F288339842F3D90320A7
:1031700077E0E5B9E369002B72D03E4A526802F06D
:103180000C02082A56D0022B17D03B4B00221A669D
:10319000FEF75AFF0446374B1B6813F0007F47D0F9
:1031A000FEF752FF001B0228F5D9032059E0314AEF
:1031B000D36923F08053D361DCE72F4B00221A66DA
:1031C000FEF742FF05462B4B1B6813F0007F06D02D
:1031D000FEF73AFF401B0228F5D9032041E0236A9D
:1031E000B3F5803F1AD023494B6823F47413226A45
:1031F000606A024313434B601F4B01221A66FEF7BD
:1032000023FF04461B4B1B6813F0007F0ED1FEF713
:103210001BFF001B0228F5D9032022E0154A536842
:1032200023F40033A1680B435360DCE7002018E06F
:10323000002016E0012B16D00E4B5B6803F48031A2
:10324000226A914211D103F47013626A93420ED143
:10325000002006E001207047012002E0012000E08C
:10326000002002B070BD0120FBE70120F9E701203A
:10327000F7E700BF00100240000042420F4B5B68BE
:1032800003F00C02082A01D00D487047C3F38342B3
:103290000C49885C13F4803F0BD0084B5B68C3F388
:1032A0004043094AD35C064A02FB00F0B0FBF3F04E
:1032B0007047064B03FB00F0704700BF0010024050
:1032C00000127A00E8AC0008E4AC000800093D00F8
:1032D000002800F0A08070B50D460446524B1B68D4
:1032E00003F007038B420BD24F4A136823F0070306
:1032F0000B431360136803F007038B4240F08D808B
:10330000236813F0020F17D013F0040F04D0474ABC
:10331000536843F4E0635360236813F0080F04D04C
:10332000424A536843F460535360404A536823F061
:10333000F003A1680B435360236813F0010F31D0F1
:103340006368012B20D0022B25D0384A126812F076
:10335000020F64D035494A6822F0030213434B60E0
:10336000FEF772FE0646314B5B6803F00C036268A1
:10337000B3EB820F16D0FEF767FE801B41F2883355
:103380009842F0D9032045E0284A126812F4003F21
:10339000E0D101203EE0254A126812F0007FD9D129
:1033A000012037E0204B1B6803F00703AB420AD92A
:1033B0001D4A136823F007032B431360136803F0BF
:1033C0000703AB422DD1236813F0040F06D0174A30
:1033D000536823F4E063E1680B435360236813F000
:1033E000080F07D0114A536823F46053216943EA58
:1033F000C1035360FFF742FF0C4B5B68C3F3031339
:103400000B4AD35CD8400B4B18600B4B1868FEF787
:10341000D7FD002070BD012070470120FAE7012090
:10342000F8E70120F6E700BF00200240001002404C
:10343000D4AC00080000002008000020014B1868F0
:10344000704700BF0000002008B5FFF7F7FF044BEE
:103450005B68C3F30223034AD35CD84008BD00BFB6
:1034600000100240CCAC000808B5FFF7E7FF044BA2
:103470005B68C3F3C223034AD35CD84008BD00BFD6
:1034800000100240CCAC000870B582B0044603685E
:1034900013F0010F36D03F4BDB6913F0805F49D149
:1034A0003C4BDA6942F08052DA61DB6903F0805309
:1034B0000193019B0125384B1B6813F4807F3BD09F
:1034C000344B1B6A13F4407313D0626802F44072E9
:1034D0009A420ED02F4A136A23F440702F490126D6
:1034E000C1F840640026C1F84064106213F0010F77
:1034F00036D1284A136A23F4407361680B43136280
:10350000002D3ED1236813F0020F06D0214A5368E4
:1035100023F44043A1680B435360236813F0100F5A
:1035200034D01C4A536823F48003E1680B43536092
:1035300000202CE00025BEE7174A136843F480738F
:103540001360FEF781FD0646134B1B6813F4807F62
:10355000B6D1FEF779FD801B6428F5D9032016E06B
:10356000FEF772FD06460B4B1B6A13F0020FC0D12B
:10357000FEF76AFD801B41F288339842F3D903209D
:1035800005E0D36923F08053D361BBE7002002B08C
:1035900070BD00BF001002400070004000004242B9
:1035A00008B502284ED0102803D0012828D00020CA
:1035B00008BD2B4B5A68186810F08070F8D0C2F321
:1035C00083432849C85C12F4803F15D0244B5B68C4
:1035D000C3F34043244AD25C244BB3FBF2F303FB16
:1035E00000F01F4B5B6813F4800FE1D14000204BCB
:1035F000A3FB00304008DBE71E4B03FB00F0F0E7C5
:10360000174B1B6A40F202321A40B2F5817F24D078
:1036100003F44073B3F5007F04D0B3F5407F09D0C5
:103620000020C5E70E4A526A12F0020FF5D049F6A3
:103630004040BDE70A4B186810F40030B8D04FF294
:103640002440B5E7FFF710FF054B5B68C3F38133F8
:1036500001335B00B0FBF3F0AAE74FF40040A7E7AB
:1036600000100240FCAC0008F8AC000800127A0020
:10367000ABAAAAAA00093D0030B4026A036A23F08B
:10368000010303624568836923F073030C681C43DC
:1036900022F002028B6813430B4A904206D0456029
:1036A00084614A684263036230BC704723F00803B8
:1036B000CA681A4322F0040325F440754A692A4374
:1036C0008D691543EBE700BF002C014030B4036A5D
:1036D000026A22F4807202624468C26922F07302B4
:1036E0000D68154323F400738A6843EA02230D4AE8
:1036F000904206D04460C5614A68C263036230BC30
:10370000704723F40063CA6843EA022323F480630A
:1037100024F440544A6944EA02148A6944EA0214CF
:10372000E8E700BF002C014030B4036A026A22F4CB
:10373000805202624468C26922F4E6420D6842EA9D
:10374000052223F400538D6843EA0533074DA84250
:1037500006D04460C2614A680264036230BC7047AC
:1037600024F480444D6944EA8514F2E7002C0140BA
:1037700010B4036A046A24F001040462846924F02A
:10378000F00C4CEA021223F00A030B43826103623D
:1037900010BC704730B4056A046A24F01004046257
:1037A000846924F4407C4CEA022C2CF4704C1B03FA
:1037B0009BB243EA0C0325F0A005090101F0A0012A
:1037C00029438361016230BC704710B4036A046A04
:1037D00024F010040462846924F4704C4CEA023230
:1037E00023F0A00343EA01138261036210BC704717
:1037F00030B4056A046A24F480740462C46924F055
:10380000030C4CEA020C2CF0F00C1B01DBB243EA77
:103810000C0325F40075090201F400712943C3610A
:10382000016230BC704730B4056A046A24F48054E5
:103830000462C46924F4407C4CEA022C2CF4704CE1
:103840001B039BB243EA0C0325F40055090301F462
:1038500000512943C361016230BC7047836823F083
:1038600070030B4343F007038360704790F83D30CB
:10387000DBB2012B22D1022380F83D300368114ACC
:10388000934210D0B3F1804F0DD0A2F59432934201
:1038900009D002F58062934205D01A6842F0010215
:1038A0001A60002070479A6802F00702062A07D0C3
:1038B0001A6842F001021A60002070470120704728
:1038C00000207047002C01407047704703681B4A76
:1038D00090420AD0B0F1804F07D0A2F594329042C6
:1038E00003D002F58062904203D123F070034A684E
:1038F0001343124A90420AD0B0F1804F07D0A2F58C
:103900009432904203D002F58062904203D123F4B6
:103910004073CA68134323F080034A69134303606A
:103920008B68C3620B688362044B984202D0012308
:10393000436170470B690363F9E700BF002C014046
:1039400040B310B5044690F83D30F3B1022384F83B
:103950003D30214651F8040BFFF7B8FF012384F8EE
:10396000463084F83E3084F83F3084F8403084F8A4
:10397000413084F8423084F8433084F8443084F88D
:10398000453084F83D30002010BD80F83C30FEF713
:1039900091F9DBE70120704740B310B5044690F879
:1039A0003D30F3B1022384F83D30214651F8040B39
:1039B000FFF78CFF012384F8463084F83E3084F80A
:1039C0003F3084F8403084F8413084F8423084F845
:1039D000433084F8443084F8453084F83D3000208A
:1039E00010BD80F83C30FFF76FFFDBE70120704728
:1039F00040B310B5044690F83D30F3B1022384F88B
:103A00003D30214651F8040BFFF760FF012384F895
:103A1000463084F83E3084F83F3084F8403084F8F3
:103A2000413084F8423084F8433084F8443084F8DC
:103A3000453084F83D30002010BD80F83C30FFF761
:103A400044FFDBE70120704730B4036A026A22F0CA
:103A5000100202624468826922F4E6420D6842EA7A
:103A6000052223F020038D6843EA05130C4DA8427C
:103A700006D0446082614A688263036230BC70474A
:103A800023F08003CD6843EA051323F0400324F4B8
:103A900040644D6944EA85048D6944EA8504E8E799
:103AA000002C014038B590F83C30012B66D004461C
:103AB0000D46012380F83C300C2A5AD8DFE802F08A
:103AC000075959591B5959593059595944000068D7
:103AD000FFF7D2FD2268936943F0080393612268DF
:103AE000936923F0040393612268936929690B4366
:103AF000936100203EE00068FFF7A6FF226893690B
:103B000043F4006393612268936923F480639361B3
:103B100022689369296943EA01239361002029E01F
:103B20000068FFF7D3FD2268D36943F00803D3612F
:103B30002268D36923F00403D3612268D369296919
:103B40000B43D361002015E00068FFF7EDFD22680C
:103B5000D36943F40063D3612268D36923F480639B
:103B6000D3612268D369296943EA0123D361002024
:103B700000E00120002384F83C3038BD0220FCE73F
:103B800070B4056A046A24F0010404628469114E69
:103B9000B0420DD0B0F1804F0AD0A6F59436B042B5
:103BA00006D006F58066B04202D044F0010202E081
:103BB00024F00304224322F0F0021B01DBB2134382
:103BC00025F00A0201F00A0111438361016270BC11
:103BD000704700BF002C014038B590F83C30012BF5
:103BE0005AD004460D46012380F83C3052B1042AD5
:103BF0001AD0082A2BD00C2A3BD00120002384F8AD
:103C00003C3038BDCB684A6809680068FFF7B8FFE8
:103C10002268936923F00C03936122689369A96871
:103C20000B4393610020E9E7CB684A6809680068A4
:103C3000FFF7B0FD2268936923F440639361226823
:103C40009369A96843EA012393610020D6E7CB6812
:103C50004A6809680068FFF7CBFD2268D36923F042
:103C60000C03D3612268D369A9680B43D361002098
:103C7000C4E7CB684A6809680068FFF7D4FD22688A
:103C8000D36923F44063D3612268D369A96843EA06
:103C90000123D3610020B1E70220B2E710B48468A9
:103CA00024F47F4C42EA03220A4342EA0C02826077
:103CB00010BC704790F83C30012B78D010B504460A
:103CC000012380F83C30022380F83D30026893687D
:103CD00023F47F4323F0770393600B68602B4CD071
:103CE00029D8402B54D00CD9502B22D1CA6849680E
:103CF0000068FFF73DFD50212068FFF7AFFD002071
:103D000005E0202B0DD009D9302B0AD0012001234A
:103D100084F83D30002384F83C3010BD0BB1102BEB
:103D200005D119462068FFF799FD0020EFE7012033
:103D3000EDE70120EBE7B3F5805F34D0B3F5005F2A
:103D40000CD1CB684A6889680068FFF7A7FF226832
:103D5000936843F4804393600020D8E7702B24D10C
:103D6000CB684A6889680068FFF798FF2268936803
:103D700043F0770393600020C9E7CA684968006888
:103D8000FFF723FD60212068FFF768FD0020BEE7F4
:103D9000CA6849680068FFF7EBFC40212068FFF71C
:103DA0005DFD0020B3E70020B1E70120AFE702206E
:103DB000704701F01F014FF0010C0CFA01FC036A7F
:103DC00023EA0C030362036A8A40134303627047C9
:103DD00010B50446084651BB94F83E30DBB2013BB7
:103DE00018BF0123002B5BD1002839D1022384F8AE
:103DF0003E30012201462068FFF7DBFF23682A4A94
:103E000093423DD02368284A93423ED0B3F1804F7D
:103E10003BD0A2F59432934237D002F580629342B0
:103E200033D01A6842F001021A60002039E00429F8
:103E300008D008290DD094F84130DBB2013B18BFFF
:103E40000123CFE794F83F30DBB2013B18BF0123D9
:103E5000C8E794F84030DBB2013B18BF0123C1E74B
:103E6000042805D0082807D0022384F84130C0E791
:103E7000022384F83F30BCE7022384F84030B8E7DF
:103E80005A6C42F400425A64BCE79A6802F0070296
:103E9000062A07D01A6842F001021A60002000E0EA
:103EA000012010BD0020FCE7002C014038B504467D
:103EB0000D4600220068FFF77CFF23681B4A9342EF
:103EC00014D02368196A41F21112114208D1196AFB
:103ED00040F24442114203D11A6822F001021A60F2
:103EE0009DB9012384F83E30002038BD196A41F2A3
:103EF00011121142E5D1196A40F244421142E0D157
:103F00005A6C22F400425A64DBE7042D05D0082DD8
:103F100007D0012384F84130E6E7012384F83F30DD
:103F2000E2E7012384F84030DEE700BF002C0140C7
:103F300010B504460B46F1B990F83E00C0B253BB31
:103F400094F84220D2B2012840F08E80012A40F03D
:103F50008C8083BB022184F83E1084F842100C2B25
:103F600000F28480DFE803F06982828241828282EB
:103F7000638282826F00042905D0082907D090F857
:103F80004100C0B2DBE790F83F00C0B2D7E790F83D
:103F90004000C0B2D3E7042B05D0082B07D094F81B
:103FA0004520D2B2CFE794F84320D2B2CBE794F8C1
:103FB0004420D2B2C7E7042B0CD0082B0ED002212C
:103FC00084F84110042B0DD0082B2DD0022184F849
:103FD0004510C4E7022184F83F10F3E7022184F87A
:103FE0004010EFE7022284F843202168CA6842F0BB
:103FF0000402CA60012219462068FFF7DAFE23682E
:104000001C4A934225D0B3F1804F22D0A2F59432BE
:1040100093421ED002F5806293421AD01A6842F091
:1040200001021A60002020E0022284F84420216866
:10403000CA6842F00802CA60DCE72168CA6842F038
:104040000202CA60D6E72168CA6842F01002CA605C
:10405000D0E79A6802F00702062A09D01A6842F0EF
:1040600001021A60002000E0012010BD1046FCE7AC
:104070000020FAE7002C014090F83C20012A2CD0C7
:1040800010B40346012280F83C20022280F83D2033
:1040900002685068946820F0700C086840EA0C00D0
:1040A00050601A680E4882420AD0B2F1804F07D0A1
:1040B000A0F59430824203D000F58060824204D1A2
:1040C00024F08004496821439160012283F83D2057
:1040D000002083F83C0010BC70470220704700BFEE
:1040E000002C014010B504460268136923F44053C4
:1040F000C1680B43136183680269134342691A4321
:104100000168CB6823F4B05323F00C031343CB6056
:104110000268536923F4407381690B435361026859
:10412000134B9A4220D0FFF78FF9024602EB82022E
:1041300002EB820263689B00B2FBF3F20D48A0FB26
:1041400002314909642303FB11231B013233A0FB15
:1041500003035B0903F0F00202EB011203F00F030B
:10416000216813448B6010BDFFF77EF90246DDE73E
:10417000003801401F85EB512DE9F84305460F46F5
:1041800016469946DDF820802B681C6837EA04043F
:104190000CBF01240024B4422DD1B8F1FF3FF3D06D
:1041A000B8F1000F05D0FDF74FFFA0EB0900404527
:1041B000EAD92A6802F10C0353E8003F23F4D073D4
:1041C0000C3242E800310029F3D12A6802F11403CD
:1041D00053E8003F23F00103143242E80031002984
:1041E000F3D1202385F8413085F84230002385F84B
:1041F0004030032000E00020BDE8F88360B310B534
:10420000044690F8413013B3242384F841302268E7
:10421000D36823F40053D3602046FFF763FF22687E
:10422000136923F4904313612268536923F02A032E
:1042300053612268D36843F40053D3600020606464
:10424000202384F8413084F84230606310BD80F848
:104250004030FDF73BFED7E7012070472DE9F041E4
:1042600082B01E4690F84130DBB2202B4BD1044681
:104270000D46904600294AD00AB9012044E00023A7
:104280004364212380F84130FDF7DEFE0746A4F8A1
:104290002480A4F82680A368B3F5805F02D04FF095
:1042A00000080FE02369FBB14FF000080AE038F87E
:1042B000023B2268C3F308035360E28C92B2013AD6
:1042C00092B2E284E38C9BB28BB100963B46002213
:1042D00080212046FFF750FFD8B9002DE7D015F810
:1042E000012B23685A60E8E7A8460025EAE7009614
:1042F0003B46002240212046FFF73EFF58B92023CD
:1043000084F8413000E0022002B0BDE8F0810120D5
:10431000FAE70320F8E70320F6E70000024A034922
:10432000034800F0C9B800BF0C0000205D7E000803
:10433000200000200C4B416810B59942044601D082
:1043400003F08CFDA168094B994202D0204603F08E
:1043500085FDE168064B994204D02046BDE8104037
:1043600003F07CBD10BD00BFF40800205C090020F4
:10437000C40900202DE9F84300250423304C314ABC
:104380003149DFF8C890DFF8C880324F324E1160F3
:1043900004F15C0029460822C4E90335C4E900554C
:1043A000C4E90555A560656600F058F904F15800A8
:1043B000C4E90749C4E90987E66200F021FA274BFE
:1043C0002946082204F1C4006367C4E91A55C4E908
:1043D0001E552567C4F8CC50C4F8805000F03EF953
:1043E00004F1680304F1C000C4F88430C4E92298E1
:1043F000C4E9247600F004FA194B294604F59670B6
:104400000822C4F8DC30C4E93455C4E93855C4F88E
:10441000D850C4F83451C4F8E85000F01FF904F142
:10442000D003C4E93D87C4F8F09004F59470C4F853
:10443000FC60C4F8EC30BDE8F84300F0E1B900BF1F
:10444000F40800202C0A00201D430008CD45000878
:10445000F1450008314600085546000809000100F2
:104460001200020010B504460A4800F0CDF9636B53
:1044700023B9094B094A1B68626323B1BDE81040A8
:10448000044800F0C3B9FFF775FFBDE810400148CC
:1044900000F0BCB93C0A00202C0A0020354300087B
:1044A000014800F0B1B900BF3C0A0020014800F00B
:1044B000ADB900BF3C0A00202DE9F8434FF00009D8
:1044C00080460F461646D6E90154013D10D4A38913
:1044D000013D012B08D9B4F90E30013304D0214637
:1044E0004046B84749EA00096B1C04F16804EED164
:1044F0003668002EE7D14846BDE8F8830FB400B512
:10450000074A83B004AB106853F8042B8168019309
:1045100000F0DAFD03B05DF804EB04B0704700BFB3
:104520001800002030B5054689B008460C4600F05A
:104530006FF901210223204A049406926A6B04ACAD
:104540000590084401940791AC6802930390002AF7
:104550002ED0626EB4F90C30D20701D4980521D563
:10456000990406D4626E43F4005322F40052A381EE
:104570006266284601AA214603F08EFD636E00287C
:104580000CBF0A254FF0FF35DA0702D4A3899B053B
:1045900002D5284609B030BDA06D00F037F9284695
:1045A00009B030BDA06D00F02FF9B4F90C30D7E799
:1045B0002846FFF757FFCCE770AC0008024B0146D6
:1045C0001868FFF7AFBF00BF1800002010B50C46F9
:1045D000B1F90E1000F0BAF8002803DB236D034494
:1045E000236510BDA38923F48053A38110BD00BFB0
:1045F0002DE9F0410C46B1F90C101F46CB050546DC
:1046000016460BD421F48051A1813B463246284600
:10461000B4F90E10BDE8F04100F0AEB8B4F90E10D8
:104620000223002200F07CF8B4F90C10EAE700BF86
:1046300010B50C46B1F90E1000F072F8B4F90C3058
:10464000421C0EBF23F4805343F480532065A381A2
:1046500010BD00BFB1F90E1000F050B870B586075C
:1046600047D0541E002A3ED00346CAB201E0013CA6
:1046700039D303F8012B9D07F9D1032C2CD9CDB2E6
:1046800005EB05250F2C1A4605EB054534D9A4F199
:10469000100C2CF00F0603F1100EB6444FEA1C1C50
:1046A000156055609560D56010327245F8D10CF1F7
:1046B000010214F00C0F03EB021204F00F0C13D0E4
:1046C000ACF1040323F003030433134442F8045B06
:1046D0009A42FBD10CF003042CB1C9B21C4403F87C
:1046E000011B9C42FBD170BD64461346002CF4D1E3
:1046F000F9E703461446C0E7A446E1E7002238B5CF
:10470000064D044608462A60FDF71AFA431C00D0FD
:1047100038BD2B68002BFBD0236038BD300A002049
:1047200038B50C46114600228446074D20462A60C3
:104730001A466446FDF70EFA431C00D038BD2B68BC
:10474000002BFBD0236038BD300A002038B50C4662
:10475000114600228446074D20462A601A466446C8
:10476000FDF7D0F9431C00D038BD2B68002BFBD0DF
:10477000236038BD300A002038B50C4611460022AF
:104780008446074D20462A601A466446FDF7CAF95A
:10479000431C00D038BD2B68002BFBD0236038BDF4
:1047A000300A0020014B1868704700BF1800002035
:1047B00070B50F4B0F4DAB42A3EB050607D000249D
:1047C000B61055F8043B01349847A642F9D806F0D4
:1047D0000DFA094D094B5E1BAB424FEAA60606D007
:1047E000002455F8043B01349847A642F9D870BD1F
:1047F000FCB00008FCB00008FCB0000804B10008E0
:10480000704700BF704700BF704700BF704700BFD0
:1048100020F0030110F00300C0F1000051F8043B48
:1048200000F1040C4FEACC0C6FF000021CBF22FA1E
:104830000CF213434FF0010C4CEA0C2C4CEA0C4CDC
:10484000A3EB0C0222EA030212EACC1204BF51F8D5
:10485000043B0430F4D0C2F1000102EA0102B2FAD2
:1048600082F2C2F11F0200EBD2007047024B13B17B
:10487000024800F005B8704700000000C18600083B
:10488000002301461A46184603F0C0BF2DE9F8433D
:1048900006460820894603F027FF0546DFF8988082
:1048A000304600F005FCD8F808305F6827F00307B1
:1048B000A7F11104A4EB09042C44B4FBF5F4013C6A
:1048C00005FB04F4A54208DC0021304603F0E6FEB7
:1048D000D8F808303B44984205D0304600F0EEFB53
:1048E0000020BDE8F8833046614203F0D7FE013076
:1048F0000FD0124AD8F808303F1B47F001075F601D
:10490000136830461B1B136000F0D8FB0120BDE884
:10491000F8830021304603F0C1FED8F80820831A3E
:104920000F2BDADD43F001035360054B03491B688D
:10493000C01A0860D1E700BF50010020440A0020DF
:104940004401002000297CD0F8B50C46064600F052
:10495000AFFB54F8043C774FA4F1080523F00101A4
:104960006818D7F808C04268844522F0030200F0B6
:104970008380DB07426000EB020C33D454F8084C10
:10498000DCF804302D1B2144AC6807F1080C6445A9
:1049900003F0010364D0D5F80CE0C4F80CE0CEF8C5
:1049A0000840002B00F0818041F001036B60016042
:1049B000B1F5007F22D20122CB0849098A407968EB
:1049C00001330A437A6057F8331007EBC302083A01
:1049D000C5E9021247F83350CD603046BDE8F840D3
:1049E00000F06CBBDCF80430DB072BD541F0010391
:1049F000B1F5007F44F8043C0160DCD3B1F5206FD1
:104A00004FEA512353D28B0903F1390003F13802E5
:104A1000C300F818FB580838984203D163E09B683C
:104A2000984204D05A6822F003028A42F7D8D86824
:104A3000C5E9023085603046DD60BDE8F84000F031
:104A40003DBB7047114407F1080C836863453FD0B4
:104A5000C268DA60936041F001036B606950A7E7B8
:104A6000002B61D10A44D0E90213CB60996042F077
:104A700001036B60AA50B0E70A44D90707D454F881
:104A8000083CED1A1A44D5E90213CB60996042F054
:104A900001036B60284BBD601B6893429DD8274B78
:104AA00030461968FFF7F2FE97E71144CDE7142B63
:104AB00008D9542B1FD80B0B03F16F0003F16E02C2
:104AC000C300A6E703F15C0003F15B02C300A0E7AB
:104AD00041F001033D617D61C5F808C0C5F80CC017
:104AE0006B60695079E70121921001FA02F279684E
:104AF0000A437A609CE7B3F5AA7F06D8CB0B03F193
:104B0000780003F17702C30083E740F254529342E6
:104B100006D88B0C03F17D0003F17C02C30078E71B
:104B20004FF47E737E2274E741F001036B600160F5
:104B300053E700BF5001002048010020740A002004
:104B40002DE9F04F01F10B05162D064683B024D850
:104B5000102900F2AA8000F0ABFA102518234FF0BC
:104B6000020CB74F3B445C68A3F10802944200F08A
:104B7000198130466368E268A16823F00303CA60C4
:104B8000234491605A68083442F001025A6000F0F0
:104B900095FA204603B0BDE8F08F35F0070500F127
:104BA0008480A94200F2818000F082FAB5F5FC7F92
:104BB000C0F06F816B0A7CD0042B00F21B81AB0923
:104BC00003F1390C03F1380E4FEACC009C4F384406
:104BD00044680838A04207D10DE0002AE16880F25D
:104BE000DB80884207D00C46636823F003035A1B1E
:104BF0000F2AF2DDF446DFF84C823C69444500F0B0
:104C0000B980636823F0030EAEEB05030F2B00F3AE
:104C10004581002BC7E9048880F22F81BEF5007F13
:104C2000786880F0C68001234FEADE014FEA5E1EFD
:104C3000194403FA0EF357F83120184307EBC10368
:104C4000083BA260E360786047F83140D4600121FE
:104C50004FEAAC039940814232D8014206D12CF090
:104C6000030C490001420CF1040CFAD007EBCC0A0A
:104C70005046E146D0F80CE00DE0DEF80420744622
:104C800022F00302531B0F2BDEF80CE000F3BF8071
:104C9000002B80F2E3807045EFD109F1010919F092
:104CA000030F00F10800E5D124E10C233360002458
:104CB0006FE74FF400704FF0400C4FF03F0E85E768
:104CC000BC68636823F00309A94503D3A9EB050376
:104CD0000F2B51DC5C4B08201B6803F1100803F01C
:104CE00003FD5A4A04EB090300931368834601331A
:104CF000A84405D008F1FF388044434203EA08087D
:104D00004146304603F0CAFCB0F1FF3F82464F4AAD
:104D100000F0E18004EB0903834200F2DA804C4B9F
:104D20000BF1FF31186840448446186040F0008160
:104D30001AEA010F40F0FC80D7F808A0C84448F0F8
:104D40000102CAF804205446424B1968814238BF18
:104D50001860414B1968814238BF186022F003087F
:104D6000A845A8EB050301D30F2B05DC304600F066
:104D7000A5F99CE778686AE7621943F0010345F0FA
:104D8000010565603046BA600834536000F096F95A
:104D9000204603B0BDE8F08FA2683046D1602344BE
:104DA0008A60EFE6DC68A3427FF4E3AE0CF1020C0C
:104DB00021E7BEF5206F4FEA5E22C0F08380142AFF
:104DC00000F2178102F15C03DB005B32F918FB583B
:104DD0000839994203D1F3E09B68994204D05A689C
:104DE00022F003027245F7D8D968C4E902318C6019
:104DF000DC602CE7142B71D9542B00F203812B0BB0
:104E000003F16F0C03F16E0E4FEACC00DEE6611980
:104E1000304645F00105A668656043F00105C6F817
:104E20000CE0CEF80860C7E90411C1F80880C1F8A9
:104E30000C804D60A35000F041F90834A9E600BF92
:104E40005001002058010020740A00204401002075
:104E5000440A0020700A00206C0A00202244536893
:104E6000304643F00103536054F8083FC3F80CE0A8
:104E7000CEF8083000F022F98BE6A644DEF80430C4
:104E8000304643F00103CEF8043000F017F908343F
:104E90007FE64FEAD50C05F1080362E6621943F09C
:104EA000010145F0010565603046C7E90422C2F8FA
:104EB0000880C2F80C80516044F80E3000F0FEF813
:104EC000083466E64FEA9E1202F13903DB003832FD
:104ED0007CE7BC4224D0BC6862683FE703F15C0C0D
:104EE00003F15B0E4FEACC0070E65AF808395345DF
:104EF00040F0D9801CF0030F0CF1FF3CF5D17B682A
:104F000023EA01037B60490099423FF6D9AE19B903
:104F1000D6E6490009F104091942FAD0CC46A5E6C3
:104F2000624B0BF1FF31186808EB000CC3F800C0AE
:104F30001068013071D004EB0902AAEB020262444E
:104F40001A601AF00702CDE9002341D0C2F108022D
:104F50009244D04408EA01005A44121A02EA010BB2
:104F60005946304603F09AFB421C019B72D0A0EBDD
:104F70000A0000EB0B08186848F001025844BC42D4
:104F8000C7F808A01860CAF804203FF4DCAEB9F1F5
:104F90000F0F45D94FF0050C6168A9F10C0222F002
:104FA000070201F00101114361600F2A04EB0201C5
:104FB000C1F804C0C1F808C054D8DAF80420C2E629
:104FC0004FF0010E92100EFA02F2104378600CE7D7
:104FD0000AEB08020A40ABEB020202EA010B594657
:104FE000304603F05BFB431C019BC0D1DDF800B0F1
:104FF000C1E7542A18D84FEA1E3202F16F03DB00D2
:105000006E32E3E6B3F5AA7F18D8EB0B03F1780C08
:1050100003F1770E4FEACC00D8E5C2F800A090E784
:105020000123CAF80430A1E6B2F5AA7F25D84FEAD9
:10503000DE3202F17803DB007732C7E640F25452E9
:10504000934225D8AB0C03F17D0C03F17C0E4FEAA3
:10505000CC00BBE5009A4FF0000B083A9044A8EB57
:105060000A0888E7304604F108010093FFF76AFC5C
:10507000009BD7F808A018689FE740F254539A4263
:105080000DD84FEA9E4202F17D03DB007C329DE6A3
:105090004FF47E704FF07F0C4FF07E0E96E54FF48C
:1050A0007E737E2292E67B682DE700BF440A0020D3
:1050B0000148FFF7A9BB00BF340A00200148FFF7F1
:1050C000A5BB00BF340A00202DE9F04FDDB09146AA
:1050D0001C460891834603F0DDFA03680E941846D7
:1050E0001993FFF795FB0346082200212CA818937B
:1050F000FFF7B4FABBF1000F04D0DBF83430002B1B
:1051000001F08C80089B5A6EB3F90C30D10702D4A1
:105110009A0540F1B8869F0407D4089943F40053D8
:105120004A6E8B8122F400524A661E0740F1C78006
:10513000089A1269002A00F0C28003F01A020A2AB3
:1051400000F0CC80002300249E46CDE931330023BB
:1051500033AA9046CDE91434CDE91AEECDE91CEE20
:105160003092CDF85CE0CDF82CE0CDF848E0CDF8F9
:1051700024B0CDF81890069E099D894B2CAFD3F82A
:10518000E44003F081FA3246034628A928460097F6
:10519000A047002800F0C180C0F2B780289B252BD3
:1051A00001D00644E9E7069B0546F71A40F0B980AE
:1051B00000224FF0FF3391460A937378741C8DF8E8
:1051C00097200C921F460134A7F120035A2B00F2BE
:1051D000E980DFE813F0D302E700E700CF02E70041
:1051E000E700E700AF02E700E7006A008C02E70093
:1051F00074029502E70091025B005B005B005B00BC
:105200005B005B005B005B005B00E700E700E70022
:10521000E700E700E700E7006A01E70004022C036B
:105220006A016A016A01E700E700E700E700280376
:10523000E700E700E502E700E700E7001B02E70000
:105240001603E700E7001907E700E700E700E700BB
:10525000E700E700E700E7006A01E70004024C020C
:105260006A016A016A0182024C020002E7007802C8
:10527000E70055033E0744030002E7001B027200EB
:105280003A07E700E7004107E70072000022A7F1B4
:10529000300314F8017B02EB820203EB4202A7F118
:1052A0003003092BF5D90C928EE70E9B53F8042B93
:1052B000002A0C920E93C0F2FF81237882E7089DAA
:1052C0005846294603F05EF8002841F0E083B5F91E
:1052D0000C3003F01A020A2A7FF434AF0899B1F9AE
:1052E0000E20002AFFF62EAF4A6ED00702D49A0590
:1052F00041F1D58123464A465846089901F01AFDE6
:105300000B900B985DB0BDE8F08F082200212CA80F
:10531000FFF7A4F9012006442FE7069B0546F71A7C
:1053200012D0069BC8E90037329B3B443293319B35
:105330000133072B319313DC08F108080B9B3B4426
:105340000B93002D7FF434AF329BDDF824B0002B9B
:1053500041F0E9800022089B3192B3F90C3012E051
:1053600030AADDE9081001F061FD48B90DF1CC0863
:10537000E4E7A3460D9B1BB158460D99FFF7E2FAEF
:10538000089BB3F90C30089A526ED40740F119818A
:10539000590601F188830B985DB0BDE8F08F00BF1E
:1053A000580500200F94002FCED04FF0010B0022A3
:1053B00043AB8DF80C71CDF81CB00693CDE91022EB
:1053C0008DF897200D920A92139219F0020302D0E1
:1053D00007990231079119F08404329D05D10C9987
:1053E00007980E1A002E00F3A88082B10122C8F897
:1053F0000420319A013501320DF19701072A3295C7
:105400003192C8F8001000F3F28308F108087BB16C
:105410000223C8F80430319B0235013326AA072B3A
:1054200032953193C8F8002000F3EF8308F10808A3
:10543000802C00F0B8820A9BA3EB0B06002E00F331
:10544000F68219F4807F40F02A82069B5D44C8F8FA
:105450000030319BC8F804B00133072B32953193EB
:1054600000F3468308F1080819F0040F05D00C9BDF
:10547000079A9C1A002C00F3D483DDE90B320799BC
:105480008A42ACBF9B185B180B93002D40F007833A
:10549000002331930D9B1BB10D990998FFF752FA28
:1054A0000DF1CC080F9B069365E60E9B0F94073316
:1054B00023F00703F3E802450E9325F00043219300
:1054C0002094DDE920AB4FF0FF3250465946B04BF7
:1054D000CDE91445FBF70CFE002840F03C854FF069
:1054E000FF3250465946AA4BFBF7E4FD002840F036
:1054F00032850022002320462946FBF7D1FD0028F3
:1055000041F0CE819DF8972000214FF0030BA14C74
:10551000A14B29F080090D91CDF81CB0472FC8BFD1
:105520001C46CDE9101106940A911391002A3FF40C
:105530004CAF079B0133079347E7102E319A41F395
:105540003E82DFF858C241462846B846CDE91E34AF
:10555000DDE908454FF0100A6746CDF858C004E071
:10556000103E102E01F1080115DD01321030072A1E
:10557000C1E9007ACDE93120F2DD2146284630AA82
:1055800001F054FC002840F04686DDE93120103E51
:10559000102E33A9E9DC4746DDE91E34884605466E
:1055A000013216993544072ACDE93125C8F8001093
:1055B000C8F8046000F31E869DF8972008F10808DB
:1055C00013E798053FF5E4AE089CA06DFFF71EF9C0
:1055D000B4F90C30DCE6237849F02009F2E50E9BA3
:1055E000432F0F9403F1040500F06A8519F0100FA2
:1055F00040F066850E9B43AC1B688DF80C3101238F
:105600009B46079300220E950694D7E600230E9E34
:105610008DF8973056F8043B0F940693002B00F05A
:105620003E85532F00F0118619F01003109340F0BF
:105630000C860A9B5F1C00F080871A46109906981A
:1056400003F060F80D90002801F022830D9B069A6C
:105650007327A3EB020B109B2BEAEB719DF89720AD
:105660000E960A930791139311930D935EE719F029
:10567000200F0F9400F0E2800E9B073323F0070306
:105680001846596850F8083B0A460E900029C0F2A7
:1056900048840A99013100F09A8253EA020129F004
:1056A000800B40F095820A9A002A40F096825CAB0B
:1056B000D9460693934669E10C9B5B420C93237891
:1056C00049F004097EE523786C2B03BF637849F029
:1056D0002009013449F0100974E52378682B03BFD1
:1056E000637849F40079013449F040096AE52B23D5
:1056F0008DF89730237865E5237849F0800961E5D6
:10570000224612F8017B2A2F01F0DD82A7F1300337
:10571000092B144698BF002201F2558114F8017B31
:1057200002EB820203EB4202A7F13003092BF5D909
:105730000A9249E5099D284602F0ACFF43681846E5
:105740001C93FFF765F8034628461D931D4602F09B
:10575000A1FF83681793002D3FF4AFAD179A23780C
:10576000002A3FF42FAD1278002A3FF42BAD49F404
:10577000806927E5237849F0010923E59DF8972002
:105780002378002A7FF41EAD20228DF8972019E59A
:10579000FFFFEF7F0CAD000810AD000860AD000802
:1057A0000F9449F0100919F0200200F04F830E9B6E
:1057B000073323F0070319465A6851F8083B0E9146
:1057C000002129F4806B00200A9C8DF89700651C4D
:1057D00000F0BF8053EA02002BF0800940F0B8804F
:1057E000002C40F02085002940F08F841BF0010B35
:1057F00000F07E8330238DF86F310DF26F13069326
:10580000C4E00F9449F0100B1BF0200200F02D8330
:105810000E9B0121073323F0070318465A6850F8FE
:10582000083B0E90CFE7237849F00809CAE449F015
:10583000100919F0200F0F947FF41EAF0E9A19F083
:10584000100F52F8043B0E9240F0668319F0400F9F
:1058500000F05E8343F3C03211461BB216E747F6F1
:1058600030030E9AA848ADF8983052F8043B022154
:105870000E92782700220F9449F0020B1A90A2E7AB
:1058800019F0200F0F9400F055830E9B0B9A1B68A4
:105890001A60D2175A600E9B04330E9302E6652FEE
:1058A00040F33881DDE9140100220023FBF7EEFB11
:1058B000002800F0F1810123C8F80430319B934A9D
:1058C00001330135072B32953193C8F8002000F3DE
:1058D000AF8408F10808279B129A934280F2DB827A
:1058E000189B199A1D44C8E90023319B3295013356
:1058F000072B319300F3C78308F10808129B5C1E45
:10590000002C7FF7B1AD102C319B40F30985DDE908
:1059100008AB7F4F1026169705E008F10808103CE9
:10592000102C40F3FF8401331035072BC8E90076B3
:10593000CDE93135F1DD5146584630AA01F076FA0D
:1059400000287FF417ADDDE931350DF1CC08E6E72D
:10595000CB46012900F03C81022900F024815CAC97
:1059600003F00701DB0843EA4273D208303153EAFF
:105970000205204604F8011DF2D11BF0010F069428
:1059800040F00B825CABD946A3EB040B0A9A0023D0
:105990005A45B8BF5A46CDE9103307920D939DF88A
:1059A00097201393C2E50C9B079A9E1A002E7FF74F
:1059B00042AD102E319B41F3EE8055484246DDE961
:1059C000088A294610240546169004E0103E102E41
:1059D00002F1080215DD01331031072BC2E9005432
:1059E000CDE93131F2DD4146504630AA01F01EFAD0
:1059F000002840F08684DDE93131103E102E33AAB4
:105A0000E9DC90460D460133169A3544072BCDE963
:105A10003135C8F80020C8F8046000F327830A9BDA
:105A200008F10808A3EB0B06002E7FF70AAD384AF1
:105A3000102E319B169223DD2A46DDE908544FF0E3
:105A4000100A04E0103E102E08F1080817DD01339B
:105A50002F491032072BC8E9001ACDE93132F1DDA8
:105A60002946204630AA01F0E1F900287FF481ACF4
:105A7000DDE93132103E102E0DF1CC08E7DC154681
:105A80000133169A3544072BCDE93135C8F800208B
:105A9000C8F8046000F3CD8108F10808D1E430AA09
:105AA000DDE9081001F0C2F900283FF4F1ACDDF89F
:105AB00024B05FE4189B19991D44C8E90013319B79
:105AC00032950133072B319300F3DA8508F108088A
:105AD000002AC0F2BB87069A0133C8F80020129A48
