:020000040800F2
:1000000000500020A1090008FD040008FF040008BA
:1000100001050008030500080505000800000000B0
:1000200000000000000000000000000007050008BC
:1000300009050008000000000B0500080D05000878
:10004000E909000815050008E9090008E9090008A0
:10005000E9090008E9090008E9090008E9090008B8
:10006000E9090008E9090008E90900081D05000878
:10007000E9090008E9090008E9090008E909000898
:10008000E9090008E9090008E9090008E909000888
:10009000E9090008E9090008E9090008E909000878
:1000A000E9090008E9090008E9090008E909000868
:1000B000E9090008E9090008E9090008E909000858
:1000C000E9090008E9090008E9090008E909000848
:1000D000E9090008E9090008E9090008E909000838
:1000E000E9090008E9090008E90900080000000022
:1000F0000000000000000000000000000000000000
:0C01000000000000000000005FF808F1A3
:10010C000348044B834202D0034B03B1184770479A
:10011C001000002010000020000000000548064BD5
:10012C001B1AD90F01EBA301491002D0034B03B1E9
:10013C00184770471000002010000020000000003D
:10014C0010B5064C237843B9FFF7DAFF044B13B113
:10015C000448AFF300800123237010BD1000002071
:10016C0000000000C023000808B5054B1BB1054971
:10017C000548AFF30080BDE80840FFF7CFBF00BFD4
:10018C000000000014000020C023000800B585B05A
:10019C0000230193029303933748384A02604FF4CB
:1001AC0080728260037303754FF46022C2614360F6
:1001BC000723036100F02AFD002845D10023019399
:1001CC00012302930523039301A92B4800F052FC51
:1001DC0000283CD1012301930223029301A9264854
:1001EC0000F048FC002835D10323029301A92248D2
:1001FC0000F040FC002830D1022301930423029329
:10020C000DEB03011C4800F035FC48BB03230193A4
:10021C000523029301A9184800F02CFC18BB0423F9
:10022C0001930623029301A9134800F023FCE8B9BB
:10023C00082301930723029301A90F4800F01AFC2D
:10024C00B8B905B05DF804FB00F0CEF8B6E700F0E5
:10025C00CBF8BFE700F0C8F8C6E700F0C5F8CBE76D
:10026C0000F0C2F8D2E700F0BFF8D8E700F0BCF815
:10027C00DEE700F0B9F8E4E770000020002401404C
:10028C0030B589B000230493059306930793026855
:10029C00254B9A4201D009B030BD044603F56C439E
:1002AC009A6942F400729A619A6902F4007201929E
:1002BC00019A9A6942F004029A619A6902F0040266
:1002CC000292029A9A6942F008029A619B6903F0C1
:1002DC0008030393039B1F2304930325059504A98B
:1002EC00124800F067FE0495059504A9104800F02B
:1002FC0061FE1048104B0360002343608360802232
:10030C00C2604FF4807202614FF48062426120221D
:10031C008261C36100F076FD18B9064B23625C6202
:10032C00B9E700F061F8F8E700240140000801404B
:10033C00000C01402C0000200800024000B583B0E6
:10034C000A4B5A6942F001025A615B6903F00103DE
:10035C000193019B002211460B2000F021FD0B2084
:10036C0000F02EFD03B05DF804FB00BF001002404E
:10037C0030B589B000240494059406940794184B66
:10038C009A6942F020029A619A6902F02002019265
:10039C00019A9A6942F004029A619A6902F0040285
:1003AC000292029A9A6942F008029A619B6903F0E0
:1003BC0008030393039B0B4D22464FF4E051284650
:1003CC0000F006FF4FF4E0530493012305930694C9
:1003DC000223079304A9284600F0ECFD09B030BDB8
:1003EC00001002400008014072B6FEE700B595B05F
:1003FC00282200210DEB020001F0FCFE00230593E6
:10040C000693079308930993019302930393049320
:10041C0001220A924FF480330B930E920222119216
:10042C0012934FF4E01313930AA800F0FFFEC8B91F
:10043C000F23059302210691002307934FF480624A
:10044C000892099305A801F023F968B902230193D6
:10045C004FF40043039301A801F0F6F930B915B03D
:10046C005DF804FBFFF7C0FFFFF7BEFFFFF7BCFF13
:10047C0008B500F0DBFAFFF7B9FFFFF779FFFFF7DC
:10048C005DFFFFF783FE00F04BF900F0C5F900F0BB
:10049C0049F800F021FAFEE700B583B0124B9A69D7
:1004AC0042F001029A619A6902F001020092009AEC
:1004BC00DA6942F08052DA61DB6903F08053019310
:1004CC00019B00221146012000F06AFC012000F083
:1004DC0077FC064A536823F0E06343F000735360E3
:1004EC0003B05DF804FB00BF0010024000000140A7
:1004FC00FEE7FEE7FEE7FEE7FEE770477047704752
:10050C0008B500F0A5FA08BD08B500F069FE08BDF5
:10051C0008B5024800F0ACFC08BD00BF2C00002060
:10052C007047000000B58BB0002306930793089327
:10053C0009930493059300930193029303931F482B
:10054C001F4A02604722426083604FF6FF72C2600E
:10055C000361836101F03AFB08BB4FF480530693AF
:10056C0006A9164801F0ECFCE0B9144801F086FB32
:10057C00D8B900230493059304A9104801F060FD39
:10058C00B0B90022009201230193029203926946B2
:10059C000A4801F067FC70B90BB05DF804FBFFF77B
:1005AC0023FFDAE7FFF720FFDFE7FFF71DFFE0E7A8
:1005BC00FFF71AFFE5E7FFF717FFEDE7A0000020B4
:1005CC000004004000B589B0002304930593069302
:1005DC00079303681E4A934208D0B3F1804F10D0A2
:1005EC001C4A934219D009B05DF804FB1A4B9A6966
:1005FC0042F400629A619B6903F400630093009BD0
:10060C00F1E703F50433DA6942F00102DA61DB69E0
:10061C0003F001030193019BE5E70F4BDA6942F00C
:10062C000202DA61DA6902F002020292029A9A6913
:10063C0042F004029A619B6903F004030393039B49
:10064C004023049304A9054800F0B4FCCBE700BF99
:10065C00002C014000040040001002400008014042
:10066C0010B588B000230493059306930793036891
:10067C00264A934204D0B3F1804F16D008B010BD77
:10068C00234B9A6942F004029A619B6903F00403BC
:10069C000193019B4FF4407304930223059307933A
:1006AC0004A91C4800F086FCE8E703F504339A69BA
:1006BC0042F004029A619A6902F004020292029AD0
:1006CC009A6942F008029A619B6903F0080303934C
:1006DC00039B4FF40043049302240594079404A94C
:1006EC000C4800F067FC082304930594079404A9B4
:1006FC00094800F05FFC094A536823F4407343F047
:10070C00E06343F480735360B8E700BF002C0140F2
:10071C000010024000080140000C014000000140A4
:10072C0010B596B00024129413941494159410944C
:10073C00119409940A940B940C940D940E940F94A8
:10074C002022214601A801F055FD3148314B0360B0
:10075C00446084604FF6FF73C3600461446184613C
:10076C0001F034FA00283ED14FF48053129312A9B1
:10077C00274801F0E5FB002838D1254801F052FA52
:10078C00002836D100231093119310A9204801F0B2
:10079C0057FC002830D16023099300220A920B9257
:1007AC000C920D920E920F9209A9194801F0C0FA01
:1007BC0028BB042209A9164801F0BAFA10BB002381
:1007CC00019302930393049305934FF40052069202
:1007DC00089301A90E4801F069FCB0B90C48FFF769
:1007EC003FFF16B010BDFFF7FFFDBDE7FFF7FCFDA7
:1007FC00C3E7FFF7F9FDC5E7FFF7F6FDCBE7FFF71A
:10080C00F3FDD6E7FFF7F0FDD9E7FFF7EDFDE5E7E0
:10081C0030010020002C014000B58FB000230A935A
:10082C000B930C930D9308930993019302930393E9
:10083C00049305930693079326484FF08042026079
:10084C004722426083604FF4FA72C2600361836195
:10085C0001F0BCF960BB4FF480530A930AA91D4800
:10086C0001F06EFB38BB1B4801F0DCF930BB0023F8
:10087C000893099308A9174801F0E2FB08BB602311
:10088C0001933223029300220392059201A911488D
:10089C0001F04EFAC0B904220DEB02010D4801F033
:1008AC0047FAA0B90B48FFF7DBFE0FB05DF804FB6D
:1008BC00FFF79AFDCFE7FFF797FDD4E7FFF794FD1D
:1008CC00D5E7FFF791FDDAE7FFF78EFDE3E7FFF7DA
:1008DC008BFDE7E7E800002008B50A480A4B0360E7
:1008EC004FF4E133436000238360C36003610C2247
:1008FC0042618361C36101F04DFC00B908BDFFF793
:10090C0073FDFBE7780100200038014010B586B07C
:10091C000023029303930493059302681A4B9A42A3
:10092C0001D006B010BD03F558439A6942F48042D9
:10093C009A619A6902F480420092009A9A6942F094
:10094C0008029A619B6903F008030193019B402301
:10095C00029302230393032305930C4C02A9204614
:10096C0000F028FB8023029300230393049302A935
:10097C00204600F01FFB064A536843F0E06343F047
:10098C0004035360CDE700BF00380140000C014068
:10099C0000000140FFF7C4FD0B480C490C4A002332
:1009AC0002E0D458C4500433C4188C42F9D3094A19
:1009BC00094C002301E013600432A242FBD301F086
:1009CC0069FCFFF755FD7047000000201000002067
:1009DC0010240008100000205C030020FEE700003B
:1009EC0010B504460E4B1A784FF47A73B3FBF2F33E
:1009FC000C4A1068B0FBF3F000F0F0F968B90F2C5A
:100A0C0001D901200AE0002221464FF0FF3000F00E
:100A1C00C7F9054B1C60002000E0012010BD00BF91
:100A2C0004000020000000200800002008B5074A40
:100A3C00136843F010031360032000F09FF90F209C
:100A4C00FFF7CEFFFFF728FD002008BD0020024075
:100A5C00034A1168034B1B780B441360704700BFAB
:100A6C00C001002004000020014B1868704700BF33
:100A7C00C001002030B482B00022019290F82420F2
:100A8C00012A00F08F800346012280F824204A6856
:100A9C00062A2DD80468606B02EB8202053A4FF0EF
:100AAC001F0C0CFA02FC20EA0C000D6805FA02F28D
:100ABC00024362630A68092A38D91C68E06802EBB1
:100ACC0042021E3A4FF0070C0CFA02FC20EA0C0012
:100ADC008D6805FA02F20243E2600A68103A012AB4
:100AEC0034D90020002283F8242002B030BC704797
:100AFC000C2A0DD80568286B02EB8202233A1F24BE
:100B0C00944020EA04000C68944020432863D1E709
:100B1C000568E86A02EB8202413A1F24944020EAFD
:100B2C0004000C6894402043E862C3E71C68206909
:100B3C0002EB42024FF0070C0CFA02FC20EA0C000C
:100B4C008D6805FA02F202432261C6E71A6816485C
:100B5C00824205D09A6A42F020029A620120C1E7D3
:100B6C00906810F4000F1BD1906840F40000906066
:100B7C000A68102A01D00020B4E70C4A12680C490C
:100B8C00A1FB0212920C02EB82025200019202E0D3
:100B9C00019A013A0192019A002AF9D10020A1E7A9
:100BAC0000209FE70220A0E7002401400000002065
:100BBC0083DE1B4338B503689A6812F0010F01D12C
:100BCC00002038BD04469A6822F001029A60FFF7B3
:100BDC004BFF054623689B6813F0010F13D0FFF7FA
:100BEC0043FF431B022BF5D923689B6813F0010FBD
:100BFC00F0D0A36A43F01003A362E36A43F001034D
:100C0C00E3620120DDE70020DBE7000000287BD059
:100C1C0070B50446836A002B4DD02046FFF7CAFFFF
:100C2C00A36A13F0100369D1002867D1A26A22F4D9
:100C3C00885222F0020242F00202A2626268E1696A
:100C4C000A43217B42EA4102A568B5F5807F02D0B8
:100C5C00012D36D01D46267D012E35D026687168B3
:100C6C0021F46941294371602568AE6827493140F8
:100C7C001143A960A168B1F5807F01D0012902D18F
:100C8C002369013B1B052568E96A21F470010B43BC
:100C9C00EB62236899681E4B0B409A4225D0A36ADD
:100CAC0023F0120343F01003A362E36A43F0010341
:100CBC00E362012027E0C36280F82430FFF7E0FAFA
:100CCC00ABE74FF48075C6E731B9A169013945EA44
:100CDC00413141F40065C1E7A16A41F02001A162F4
:100CEC00E16A41F00101E162B8E70023E362A36A23
:100CFC0023F0030343F00103A36204E0A36A43F06F
:100D0C001003A362012070BD01207047FDF7E1FFC5
:100D1C00FE0E1FFF002808DB0901C9B200F160407C
:100D2C0000F5614080F80013704700F00F000901D6
:100D3C00C9B2014B1954704714ED00E000B500F036
:100D4C000700C0F1070CBCF1040F28BF4FF0040CD6
:100D5C00031D062B0FD9C31E4FF0FF3E0EFA0CF0ED
:100D6C0021EA000199400EFA03FE22EA0E0241EA42
:100D7C0002005DF804FB0023EEE70000074AD3688D
:100D8C0023F4E0631B041B0C000200F4E06003433B
:100D9C0043F0BF6343F40033D360704700ED00E0D1
:100DAC0010B50446054BD868C0F30220FFF7C6FF08
:100DBC0001462046FFF7AEFF10BD00BF00ED00E07E
:100DCC00002807DB00F01F02400901239340024A70
:100DDC0042F82030704700BF00E100E00138B0F16C
:100DEC00807F0BD24FF0E0235861054AF02182F846
:100DFC0023100020986107221A6170470120704768
:100E0C0000ED00E060B310B402460168154B0B44D2
:100E1C001548A0FB03031B099B001364134BD363FE
:100E2C00022382F82130086820F47F5020F0300033
:100E3C00536894682343D468234314692343546947
:100E4C00234394692343D469234303430B60002059
:100E5C009063012382F8213082F8200010BC704787
:100E6C0001207047F8FFFDBFCDCCCCCC0000024078
:100E7C0038B5C36B1A6804682568016C04238B4071
:100E8C00134235D015F0040F32D0236813F0200F25
:100E9C0003D1236823F0040323600368434A93427D
:100EAC0014D01432934218D01432934217D0143207
:100EBC00934217D01432934217D01432934202D07B
:100ECC004FF0806203E04FF4800200E00422384BC4
:100EDC005A60C36A03B1984738BD4022F7E74FF414
:100EEC008062F4E74FF48042F1E74FF48022EEE7A2
:100EFC0002238B4013423CD015F0020F39D02368EB
:100F0C0013F0200F06D1236823F00A03236001237A
:100F1C0080F821300368254A934214D0143293424E
:100F2C001CD0143293421BD0143293421BD0143277
:100F3C0093421BD01432934202D04FF0007203E064
:100F4C004FF4001200E00222194B5A60002380F883
:100F5C002030836A002BBFD09847BDE72022F3E7EF
:100F6C004FF40072F0E74FF40052EDE74FF400320B
:100F7C00EAE708238B401342AED015F0080FABD034
:100F8C00236823F00E032360026CC16B012303FA68
:100F9C0002F24A60836380F82130002380F820300D
:100FAC00036B002B98D0984796E700BF08000240CF
:100FBC000000024070B582B00024A446A2E07E4D31
:100FCC00AB4210D007D97D4DAB420CD005F5803526
:100FDC00AB4208D013E0A5F58015AB4203D005F564
:100FEC007025AB4207D18B68002B55D0012B4ED00E
:100FFC004261082403E0A5F58015AB42F3D0BEF1A5
:10100C00FF0F4BD806464FEA8C0233680F259540EC
:10101C0023EA050304FA02F2134333604B6813F01E
:10102C00805F6DD0664B9A6942F001029A619B69B0
:10103C0003F001030193019B4FEA9C02951C614B49
:10104C0053F825600CF00305AD000F23AB4026EAE6
:10105C0003065D4B984228D003F58063984200F05C
:10106C008D8003F58063984200F08A8003F58063DD
:10107C00984218D0042319E0CC68C0E7CC6804343B
:10108C00BDE7CC680834BAE7CC680C34B7E702612A
:10109C000824B4E70024B2E70424B0E7061DACF141
:1010AC0008029200B1E7032300E00023AB40334376
:1010BC000232444D45F822304B6813F4801F61D046
:1010CC00424A936843EA0E0393604B6813F4001F83
:1010DC005ED03E4AD36843EA0E03D3604B6813F4E8
:1010EC00003F5BD0394A536843EA0E0353604B68A8
:1010FC0013F4803F58D0354A136843EA0E0313604B
:10110C000CF1010C0B6833FA0CF253D0012202FAE9
:10111C000CF203EA020E32EA0303F1D14B68122BF4
:10112C003FF64DAF122B3FF66AAF01A555F823F0F1
:10113C00F30F0008851000088F100008A11000089C
:10114C000B1000080B1000080B1000080B10000807
:10115C000B1000080B1000080B1000080B100008F7
:10116C000B1000080B1000080B1000080B100008E7
:10117C000B1000088910000895100008012395E752
:10118C00022393E7114A936823EA0E0393609CE7CA
:10119C000E4AD36823EA0E03D3609FE70B4A5368C9
:1011AC0023EA0E035360A2E7084A136823EA0E03EE
:1011BC001360A5E702B070BD0000221000003110D2
:1011CC0000100240000001400008014000040140F2
:1011DC000AB1016170470904016170477047000052
:1011EC0008B5064B5B6913F4803F00D108BDFFF7CF
:1011FC00F5FF024B4FF480325A61F7E700040140CF
:10120C0082B0084B1B68084AA2FB03235B0A00FB55
:10121C0003F3019300BF019B5A1E0192002BF9D1DD
:10122C0002B0704700000020D34D6210002800F07F
:10123C00F18170B582B00446036813F0010F2CD015
:10124C00994B5B6803F00C03042B1DD0964B5B6829
:10125C0003F00C03082B12D06368B3F5803F41D028
:10126C00002B55D103F1804303F504331A6822F4A3
:10127C0080321A601A6822F480221A6037E08A4B96
:10128C005B6813F4803FE7D0874B1B6813F4003F77
:10129C0003D06368002B00F0BF81236813F0020FAA
:1012AC0075D0814B5B6813F00C0F5FD07E4B5B6885
:1012BC0003F00C03082B54D02369002B00F08A8018
:1012CC007A4B01221A60FFF7CFFB0546764B1B6861
:1012DC0013F0020F75D1FFF7C7FB401B0228F5D99D
:1012EC0003209EE1704A136843F4803313606368F3
:1012FC0043B3FFF7B9FB05466B4B1B6813F4003F78
:10130C00CBD1FFF7B1FB401B6428F5D9032088E152
:10131C00B3F5A02F09D0644B1A6822F480321A60FE
:10132C001A6822F480221A60E1E703F18043A3F5E6
:10133C003C331A6842F480221A601A6842F48032F4
:10134C001A60D4E7FFF790FB0546574B1B6813F464
:10135C00003FA2D0FFF788FB401B6428F5D903207F
:10136C005FE1514B5B6813F4803FA5D14E4B1B687A
:10137C0013F0020F03D02369012B40F04F814A4A2E
:10138C00136823F0F803616943EAC103136023680F
:10139C0013F0080F33D0A369002B5CD0434B012210
:1013AC00C3F88024FFF760FB05463F4B5B6A13F0E4
:1013BC00020F21D1FFF758FB401B0228F5D903205F
:1013CC002FE1394A136823F0F803616943EAC1033A
:1013DC001360DCE7354B00221A60FFF745FB05462E
:1013EC00314B1B6813F0020FD1D0FFF73DFB401BB4
:1013FC000228F5D9032014E10120FFF701FF23682F
:10140C0013F0040F00F09680274BDB6913F0805F1C
:10141C0034D1254BDA6942F08052DA61DB6903F092
:10142C0080530193019B0125214B1B6813F4807F92
:10143C0026D0E368012B3DD0002B53D103F1804320
:10144C0003F504331A6A22F001021A621A6A22F0B6
:10145C0004021A6233E0154B0022C3F88024FFF714
:10146C0003FB0546104B5B6A13F0020FC7D0FFF766
:10147C00FBFA401B0228F5D90320D2E00025D3E764
:10148C000B4A136843F480731360FFF7EDFA0646BA
:10149C00074B1B6813F4807FCBD1FFF7E5FA801B59
:1014AC006428F5D90320BCE0001002400000424241
:1014BC00007000405F4A136A43F001031362E36853
:1014CC0033B3FFF7D1FA06465A4B1B6A13F0020FDF
:1014DC002FD1FFF7C9FA801B41F288339842F3D918
:1014EC0003209EE0052B09D0524B1A6A22F0010210
:1014FC001A621A6A22F004021A62E0E74D4B1A6A69
:10150C0042F004021A621A6A42F001021A62D6E729
:10151C00FFF7AAFA0646474B1B6A13F0020F08D0D6
:10152C00FFF7A2FA801B41F288339842F3D90320CB
:10153C0077E0E5B9E369002B72D03E4A526802F0BD
:10154C000C02082A56D0022B17D03B4B00221A66ED
:10155C00FFF78AFA0446374B1B6813F0007F47D01D
:10156C00FFF782FA001B0228F5D9032059E0314A13
:10157C00D36923F08053D361DCE72F4B00221A662A
:10158C00FFF772FA05462B4B1B6813F0007F06D051
:10159C00FFF76AFA401B0228F5D9032041E0236AC1
:1015AC00B3F5803F1AD023494B6823F47413226A95
:1015BC00606A024313434B601F4B01221A66FFF70C
:1015CC0053FA04461B4B1B6813F0007F0ED1FFF738
:1015DC004BFA001B0228F5D9032022E0154A536868
:1015EC0023F40033A1680B435360DCE7002018E0C0
:1015FC00002016E0012B16D00E4B5B6803F48031F3
:10160C00226A914211D103F47013626A93420ED193
:10161C00002006E001207047012002E0012000E0DC
:10162C00002002B070BD0120FBE70120F9E701208A
:10163C00F7E700BF00100240000042420F4B5B680E
:10164C0003F00C02082A01D00D487047C3F3834203
:10165C000C49885C13F4803F0BD0084B5B68C3F3D8
:10166C004043094AD35C064A02FB00F0B0FBF3F09E
:10167C007047064B03FB00F0704700BF00100240A0
:10168C0000127A00F4230008F023000800093D0042
:10169C00002800F0A08070B50D460446524B1B6824
:1016AC0003F007038B420BD24F4A136823F0070356
:1016BC000B431360136803F007038B4240F08D80DB
:1016CC00236813F0020F17D013F0040F04D0474A0D
:1016DC00536843F4E0635360236813F0080F04D09D
:1016EC00424A536843F460535360404A536823F0B2
:1016FC00F003A1680B435360236813F0010F31D042
:10170C006368012B20D0022B25D0384A126812F0C6
:10171C00020F64D035494A6822F0030213434B6030
:10172C00FFF7A2F90646314B5B6803F00C036268C5
:10173C00B3EB820F16D0FFF797F9801B41F2883379
:10174C009842F0D9032045E0284A126812F4003F71
:10175C00E0D101203EE0254A126812F0007FD9D179
:10176C00012037E0204B1B6803F00703AB420AD97A
:10177C001D4A136823F007032B431360136803F00F
:10178C000703AB422DD1236813F0040F06D0174A80
:10179C00536823F4E063E1680B435360236813F050
:1017AC00080F07D0114A536823F46053216943EAA8
:1017BC00C1035360FFF742FF0C4B5B68C3F3031389
:1017CC000B4AD35CD8400B4B18600B4B1868FFF7D7
:1017DC0007F9002070BD012070470120FAE70120B5
:1017EC00F8E70120F6E700BF00200240001002409D
:1017FC00E02300080000002008000020014B1868BE
:10180C00704700BF0000002008B5FFF7F7FF044B3E
:10181C005B68C3F30223034AD35CD84008BD00BF06
:10182C0000100240D823000808B5FFF7E7FF044B6F
:10183C005B68C3F3C223034AD35CD84008BD00BF26
:10184C0000100240D823000870B582B0044603682B
:10185C0013F0010F36D03F4BDB6913F0805F49D199
:10186C003C4BDA6942F08052DA61DB6903F0805359
:10187C000193019B0125384B1B6813F4807F3BD0EF
:10188C00344B1B6A13F4407313D0626802F4407239
:10189C009A420ED02F4A136A23F440702F49012626
:1018AC00C1F840640026C1F84064106213F0010FC7
:1018BC0036D1284A136A23F4407361680B431362D0
:1018CC00002D3ED1236813F0020F06D0214A536835
:1018DC0023F44043A1680B435360236813F0100FAB
:1018EC0034D01C4A536823F48003E1680B435360E3
:1018FC0000202CE00025BEE7174A136843F48073E0
:10190C001360FFF7B1F80646134B1B6813F4807F86
:10191C00B6D1FFF7A9F8801B6428F5D9032016E08F
:10192C00FFF7A2F806460B4B1B6A13F0020FC0D14F
:10193C00FFF79AF8801B41F288339842F3D90320C1
:10194C0005E0D36923F08053D361BBE7002002B0DC
:10195C0070BD00BF00100240007000400000424209
:10196C0030B4026A036A23F0010303624568836999
:10197C0023F073030C681C4322F002028B681343A0
:10198C000B4A904206D0456084614A684263036208
:10199C0030BC704723F00803CA681A4322F00403D2
:1019AC0025F440754A692A438D691543EBE700BF5E
:1019BC00002C014030B4036A026A22F48072026285
:1019CC004468C26922F073020D68154323F4007356
:1019DC008A6843EA02230D4A904206D04460C561EE
:1019EC004A68C263036230BC704723F40063CA6860
:1019FC0043EA022323F4806324F440544A6944EA02
:101A0C0002148A6944EA0214E8E700BF002C014082
:101A1C0030B4036A026A22F4805202624468C269DA
:101A2C0022F4E6420D6842EA052223F400538D6845
:101A3C0043EA0533074DA84206D04460C2614A68A8
:101A4C000264036230BC704724F480444D6944EA5C
:101A5C008514F2E7002C014010B4036A046A24F0E8
:101A6C0001040462846924F0F00C4CEA021223F0A5
:101A7C000A030B438261036210BC704730B4056AE1
:101A8C00046A24F010040462846924F4407C4CEA57
:101A9C00022C2CF4704C1B039BB243EA0C0325F074
:101AAC00A005090101F0A00129438361016230BC4A
:101ABC00704710B4036A046A24F010040462846949
:101ACC0024F4704C4CEA023223F0A00343EA0113D5
:101ADC008261036210BC704730B4056A046A24F456
:101AEC0080740462C46924F0030C4CEA020C2CF0E0
:101AFC00F00C1B01DBB243EA0C0325F40075090260
:101B0C0001F400712943C361016230BC704730B4E9
:101B1C00056A046A24F480540462C46924F4407C89
:101B2C004CEA022C2CF4704C1B039BB243EA0C03C2
:101B3C0025F40055090301F400512943C3610162E6
:101B4C0030BC7047836823F070030B4343F00703EA
:101B5C00836070477047704703681B4A90420AD0F5
:101B6C00B0F1804F07D0A2F59432904203D002F529
:101B7C008062904203D123F070034A681343124AE7
:101B8C0090420AD0B0F1804F07D0A2F59432904227
:101B9C0003D002F58062904203D123F44073CA68EB
:101BAC00134323F080034A69134303608B68C362B9
:101BBC000B688362044B984202D001234361704747
:101BCC000B690363F9E700BF002C014040B310B56B
:101BDC00044690F83D30F3B1022384F83D302146A1
:101BEC0051F8040BFFF7B8FF012384F8463084F852
:101BFC003E3084F83F3084F8403084F8413084F82B
:101C0C00423084F8433084F8443084F8453084F80A
:101C1C003D30002010BD80F83C30FEF7D3FCDBE7F4
:101C2C000120704740B310B5044690F83D30F3B135
:101C3C00022384F83D30214651F8040BFFF78CFF4A
:101C4C00012384F8463084F83E3084F83F3084F821
:101C5C00403084F8413084F8423084F8433084F8C2
:101C6C00443084F8453084F83D30002010BD80F8B5
:101C7C003C30FFF76FFFDBE70120704740B310B536
:101C8C00044690F83D30F3B1022384F83D302146F0
:101C9C0051F8040BFFF760FF012384F8463084F8F9
:101CAC003E3084F83F3084F8403084F8413084F87A
:101CBC00423084F8433084F8443084F8453084F85A
:101CCC003D30002010BD80F83C30FFF744FFDBE7CF
:101CDC000120704730B4036A026A22F010020262DB
:101CEC004468826922F4E6420D6842EA052223F038
:101CFC0020038D6843EA05130C4DA84206D04460BE
:101D0C0082614A688263036230BC704723F08003AF
:101D1C00CD6843EA051323F0400324F440644D6975
:101D2C0044EA85048D6944EA8504E8E7002C014007
:101D3C0038B590F83C30012B66D004460D46012393
:101D4C0080F83C300C2A5AD8DFE802F00759595970
:101D5C001B5959593059595944000068FFF700FE76
:101D6C002268936943F0080393612268936923F016
:101D7C00040393612268936929690B4393610020E2
:101D8C003EE00068FFF7A6FF2268936943F4006306
:101D9C0093612268936923F4806393612268936949
:101DAC00296943EA01239361002029E00068FFF7C9
:101DBC0001FE2268D36943F00803D3612268D3691A
:101DCC0023F00403D3612268D36929690B43D361DF
:101DDC00002015E00068FFF71BFE2268D36943F46E
:101DEC000063D3612268D36923F48063D3612268D2
:101DFC00D369296943EA0123D361002000E0012063
:101E0C00002384F83C3038BD0220FCE770B4056A2E
:101E1C00046A24F0010404628469114EB0420DD0AE
:101E2C00B0F1804F0AD0A6F59436B04206D006F534
:101E3C008066B04202D044F0010202E024F00304B8
:101E4C00224322F0F0021B01DBB2134325F00A02FD
:101E5C0001F00A0111438361016270BC704700BF3D
:101E6C00002C014038B590F83C30012B5AD0044678
:101E7C000D46012380F83C3052B1042A1AD0082AAE
:101E8C002BD00C2A3BD00120002384F83C3038BDE9
:101E9C00CB684A6809680068FFF7B8FF2268936945
:101EAC0023F00C03936122689369A9680B43936137
:101EBC000020E9E7CB684A6809680068FFF7DEFD97
:101ECC002268936923F44063936122689369A9683B
:101EDC0043EA012393610020D6E7CB684A6809687E
:101EEC000068FFF7F9FD2268D36923F00C03D36176
:101EFC002268D369A9680B43D3610020C4E7CB687F
:101F0C004A6809680068FFF702FE2268D36923F467
:101F1C004063D3612268D369A96843EA0123D36182
:101F2C000020B1E70220B2E710B4846824F47F4C9F
:101F3C0042EA03220A4342EA0C02826010BC704758
:101F4C0090F83C30012B78D010B50446012380F872
:101F5C003C30022380F83D300268936823F47F43C1
:101F6C0023F0770393600B68602B4CD029D8402B5F
:101F7C0054D00CD9502B22D1CA6849680068FFF79D
:101F8C006BFD50212068FFF7DDFD002005E0202BC4
:101F9C000DD009D9302B0AD00120012384F83D3013
:101FAC00002384F83C3010BD0BB1102B05D1194621
:101FBC002068FFF7C7FD0020EFE70120EDE70120C7
:101FCC00EBE7B3F5805F34D0B3F5005F0CD1CB6891
:101FDC004A6889680068FFF7A7FF2268936843F492
:101FEC00804393600020D8E7702B24D1CB684A68DB
:101FFC0089680068FFF798FF2268936843F07703BD
:10200C0093600020C9E7CA6849680068FFF751FD72
:10201C0060212068FFF796FD0020BEE7CA6849687A
:10202C000068FFF719FD40212068FFF78BFD0020A9
:10203C00B3E70020B1E70120AFE7022070470000B2
:10204C0090F83C20012A2CD010B40346012280F8D1
:10205C003C20022280F83D2002685068946820F0F1
:10206C00700C086840EA0C0050601A680E488242F6
:10207C000AD0B2F1804F07D0A0F59430824203D041
:10208C0000F58060824204D124F080044968214329
:10209C009160012283F83D20002083F83C0010BCA5
:1020AC0070470220704700BF002C0140024690F898
:1020BC003C30012B21D0012380F83C30CB6823F439
:1020CC0040738868034323F480634868034323F414
:1020DC0000630868034323F480530869034323F423
:1020EC0000534869034323F48043C9690B431168C7
:1020FC004B64002082F83C007047022070470000BF
:10210C0010B504460268136923F44053C1680B43AD
:10211C00136183680269134342691A430168CB68EF
:10212C0023F4B05323F00C031343CB6002685369C0
:10213C0023F4407381690B4353610268134B9A4239
:10214C0020D0FFF761FB024602EB820202EB820217
:10215C0063689B00B2FBF3F20D48A0FB0231490906
:10216C00642303FB11231B013233A0FB03035B0924
:10217C0003F0F00202EB011203F00F032168134489
:10218C008B6010BDFFF750FB0246DDE700380140C5
:10219C001F85EB5160B310B5044690F8413013B372
:1021AC00242384F841302268D36823F40053D3608D
:1021BC002046FFF7A5FF2268136923F490431361AF
:1021CC002268536923F02A0353612268D36843F4CD
:1021DC000053D36000206064202384F8413084F8DD
:1021EC004230606310BD80F84030FEF78FFBD7E7BC
:1021FC000120704770B5860747D0541E002A3ED088
:10220C000346CAB201E0013C39D303F8012B9D0708
:10221C00F9D1032C2CD9CDB205EB05250F2C1A4680
:10222C0005EB054534D9A4F1100C2CF00F0603F185
:10223C00100EB6444FEA1C1C156055609560D560B5
:10224C0010327245F8D10CF1010214F00C0F03EBB3
:10225C00021204F00F0C13D0ACF1040323F00303AF
:10226C000433134442F8045B9A42FBD10CF0030490
:10227C002CB1C9B21C4403F8011B9C42FBD170BDAC
:10228C0064461346002CF4D1F9E703461446C0E724
:10229C00A446E1E770B50F4B0F4DAB42A3EB05061F
:1022AC0007D00024B61055F8043B01349847A642D9
:1022BC00F9D800F07FF8094D094B5E1BAB424FEA91
:1022CC00A60606D0002455F8043B01349847A642D4
:1022DC00F9D870BD04240008042400080424000864
:1022EC000C240008704700BF704700BF024B13B1AD
:1022FC00024800F005B870470000000019230008E0
:10230C00002301461A46184600F014B838B5074D9C
:10231C00074C2C1BA41005D0013C55F8043D9847E4
:10232C00002CF9D1BDE8384000F04AB81024000860
:10233C000C2400082DE9F8431B4D064628689846E6
:10234C000F469146FFF7CEFF184B1C681CB328684C
:10235C0065681F2D22DC4EB96B1C0235636044F896
:10236C002570FFF7C1FF0020BDE8F883012304EBC3
:10237C008501C1F88890D4F88821AB401A43022E0D
:10238C00C4F88821C1F80881E6D1D4F88C211A430D
:10239C00C4F88C21E0E7064C1C60D8E7FFF7A4FFDB
:1023AC004FF0FF30E0E700BF0C000020C801002018
:1023BC00CC010020F8B500BFF8BC08BC9E467047A5
:0C23CC00F8B500BFF8BC08BC9E46704786
:1023D80000000000010203040000000000000000EB
:1023E80001020304060708090102000002030405AC
:0C23F800060708090A0B0C0D0E0F101050
:08240400F9220008750100082F
:04240C004D01000876
:102410000024F4000100000010000000C4010020AE
:04000005080009A145
:00000001FF
